{
  "_format": "hh-sol-artifact-1",
  "contractName": "CuteNinjas",
  "sourceName": "contracts/CuteNinjas.sol",
  "abi": [
    {
      "inputs": [
        {
          "internalType": "string",
          "name": "baseURI",
          "type": "string"
        }
      ],
      "stateMutability": "nonpayable",
      "type": "constructor"
    },
    {
      "anonymous": false,
      "inputs": [
        {
          "indexed": true,
          "internalType": "address",
          "name": "owner",
          "type": "address"
        },
        {
          "indexed": true,
          "internalType": "address",
          "name": "approved",
          "type": "address"
        },
        {
          "indexed": true,
          "internalType": "uint256",
          "name": "tokenId",
          "type": "uint256"
        }
      ],
      "name": "Approval",
      "type": "event"
    },
    {
      "anonymous": false,
      "inputs": [
        {
          "indexed": true,
          "internalType": "address",
          "name": "owner",
          "type": "address"
        },
        {
          "indexed": true,
          "internalType": "address",
          "name": "operator",
          "type": "address"
        },
        {
          "indexed": false,
          "internalType": "bool",
          "name": "approved",
          "type": "bool"
        }
      ],
      "name": "ApprovalForAll",
      "type": "event"
    },
    {
      "anonymous": false,
      "inputs": [
        {
          "indexed": true,
          "internalType": "address",
          "name": "previousOwner",
          "type": "address"
        },
        {
          "indexed": true,
          "internalType": "address",
          "name": "newOwner",
          "type": "address"
        }
      ],
      "name": "OwnershipTransferred",
      "type": "event"
    },
    {
      "anonymous": false,
      "inputs": [
        {
          "indexed": true,
          "internalType": "address",
          "name": "from",
          "type": "address"
        },
        {
          "indexed": true,
          "internalType": "address",
          "name": "to",
          "type": "address"
        },
        {
          "indexed": true,
          "internalType": "uint256",
          "name": "tokenId",
          "type": "uint256"
        }
      ],
      "name": "Transfer",
      "type": "event"
    },
    {
      "inputs": [],
      "name": "MAX_NINJAS",
      "outputs": [
        {
          "internalType": "uint16",
          "name": "",
          "type": "uint16"
        }
      ],
      "stateMutability": "view",
      "type": "function"
    },
    {
      "inputs": [
        {
          "internalType": "address",
          "name": "to",
          "type": "address"
        },
        {
          "internalType": "uint256",
          "name": "tokenId",
          "type": "uint256"
        }
      ],
      "name": "approve",
      "outputs": [],
      "stateMutability": "nonpayable",
      "type": "function"
    },
    {
      "inputs": [
        {
          "internalType": "address",
          "name": "owner",
          "type": "address"
        }
      ],
      "name": "balanceOf",
      "outputs": [
        {
          "internalType": "uint256",
          "name": "",
          "type": "uint256"
        }
      ],
      "stateMutability": "view",
      "type": "function"
    },
    {
      "inputs": [
        {
          "internalType": "uint256",
          "name": "tokenId",
          "type": "uint256"
        }
      ],
      "name": "getApproved",
      "outputs": [
        {
          "internalType": "address",
          "name": "",
          "type": "address"
        }
      ],
      "stateMutability": "view",
      "type": "function"
    },
    {
      "inputs": [
        {
          "internalType": "address",
          "name": "owner",
          "type": "address"
        },
        {
          "internalType": "address",
          "name": "operator",
          "type": "address"
        }
      ],
      "name": "isApprovedForAll",
      "outputs": [
        {
          "internalType": "bool",
          "name": "",
          "type": "bool"
        }
      ],
      "stateMutability": "view",
      "type": "function"
    },
    {
      "inputs": [
        {
          "internalType": "uint8",
          "name": "numNinjas",
          "type": "uint8"
        }
      ],
      "name": "mintNFT",
      "outputs": [],
      "stateMutability": "payable",
      "type": "function"
    },
    {
      "inputs": [],
      "name": "name",
      "outputs": [
        {
          "internalType": "string",
          "name": "",
          "type": "string"
        }
      ],
      "stateMutability": "view",
      "type": "function"
    },
    {
      "inputs": [],
      "name": "owner",
      "outputs": [
        {
          "internalType": "address",
          "name": "",
          "type": "address"
        }
      ],
      "stateMutability": "view",
      "type": "function"
    },
    {
      "inputs": [
        {
          "internalType": "uint256",
          "name": "tokenId",
          "type": "uint256"
        }
      ],
      "name": "ownerOf",
      "outputs": [
        {
          "internalType": "address",
          "name": "",
          "type": "address"
        }
      ],
      "stateMutability": "view",
      "type": "function"
    },
    {
      "inputs": [],
      "name": "priceToMint",
      "outputs": [
        {
          "internalType": "uint256",
          "name": "",
          "type": "uint256"
        }
      ],
      "stateMutability": "view",
      "type": "function"
    },
    {
      "inputs": [],
      "name": "renounceOwnership",
      "outputs": [],
      "stateMutability": "nonpayable",
      "type": "function"
    },
    {
      "inputs": [
        {
          "internalType": "address",
          "name": "from",
          "type": "address"
        },
        {
          "internalType": "address",
          "name": "to",
          "type": "address"
        },
        {
          "internalType": "uint256",
          "name": "tokenId",
          "type": "uint256"
        }
      ],
      "name": "safeTransferFrom",
      "outputs": [],
      "stateMutability": "nonpayable",
      "type": "function"
    },
    {
      "inputs": [
        {
          "internalType": "address",
          "name": "from",
          "type": "address"
        },
        {
          "internalType": "address",
          "name": "to",
          "type": "address"
        },
        {
          "internalType": "uint256",
          "name": "tokenId",
          "type": "uint256"
        },
        {
          "internalType": "bytes",
          "name": "_data",
          "type": "bytes"
        }
      ],
      "name": "safeTransferFrom",
      "outputs": [],
      "stateMutability": "nonpayable",
      "type": "function"
    },
    {
      "inputs": [
        {
          "internalType": "address",
          "name": "operator",
          "type": "address"
        },
        {
          "internalType": "bool",
          "name": "approved",
          "type": "bool"
        }
      ],
      "name": "setApprovalForAll",
      "outputs": [],
      "stateMutability": "nonpayable",
      "type": "function"
    },
    {
      "inputs": [
        {
          "internalType": "bytes4",
          "name": "interfaceId",
          "type": "bytes4"
        }
      ],
      "name": "supportsInterface",
      "outputs": [
        {
          "internalType": "bool",
          "name": "",
          "type": "bool"
        }
      ],
      "stateMutability": "view",
      "type": "function"
    },
    {
      "inputs": [],
      "name": "symbol",
      "outputs": [
        {
          "internalType": "string",
          "name": "",
          "type": "string"
        }
      ],
      "stateMutability": "view",
      "type": "function"
    },
    {
      "inputs": [
        {
          "internalType": "uint256",
          "name": "tokenId",
          "type": "uint256"
        }
      ],
      "name": "tokenURI",
      "outputs": [
        {
          "internalType": "string",
          "name": "",
          "type": "string"
        }
      ],
      "stateMutability": "view",
      "type": "function"
    },
    {
      "inputs": [],
      "name": "totalSupply",
      "outputs": [
        {
          "internalType": "uint8",
          "name": "",
          "type": "uint8"
        }
      ],
      "stateMutability": "view",
      "type": "function"
    },
    {
      "inputs": [
        {
          "internalType": "address",
          "name": "from",
          "type": "address"
        },
        {
          "internalType": "address",
          "name": "to",
          "type": "address"
        },
        {
          "internalType": "uint256",
          "name": "tokenId",
          "type": "uint256"
        }
      ],
      "name": "transferFrom",
      "outputs": [],
      "stateMutability": "nonpayable",
      "type": "function"
    },
    {
      "inputs": [
        {
          "internalType": "address",
          "name": "newOwner",
          "type": "address"
        }
      ],
      "name": "transferOwnership",
      "outputs": [],
      "stateMutability": "nonpayable",
      "type": "function"
    }
  ],
  "bytecode": "0x6080604052662386f26fc100006009556000600a60006101000a81548160ff021916908360ff1602179055503480156200003857600080fd5b50604051620034603803806200346083398181016040528101906200005e91906200032e565b6040518060400160405280600a81526020017f437574654e696e6a6173000000000000000000000000000000000000000000008152506040518060400160405280600381526020017f434e4a00000000000000000000000000000000000000000000000000000000008152508160009080519060200190620000e29291906200020c565b508060019080519060200190620000fb9291906200020c565b5050506200011e620001126200013e60201b60201c565b6200014660201b60201c565b8060089080519060200190620001369291906200020c565b5050620004a4565b600033905090565b6000600660009054906101000a900473ffffffffffffffffffffffffffffffffffffffff16905081600660006101000a81548173ffffffffffffffffffffffffffffffffffffffff021916908373ffffffffffffffffffffffffffffffffffffffff1602179055508173ffffffffffffffffffffffffffffffffffffffff168173ffffffffffffffffffffffffffffffffffffffff167f8be0079c531659141344cd1fd0a4f28419497f9722a3daafe3b4186f6b6457e060405160405180910390a35050565b8280546200021a9062000410565b90600052602060002090601f0160209004810192826200023e57600085556200028a565b82601f106200025957805160ff19168380011785556200028a565b828001600101855582156200028a579182015b82811115620002895782518255916020019190600101906200026c565b5b5090506200029991906200029d565b5090565b5b80821115620002b85760008160009055506001016200029e565b5090565b6000620002d3620002cd84620003a7565b62000373565b905082815260208101848484011115620002ec57600080fd5b620002f9848285620003da565b509392505050565b600082601f8301126200031357600080fd5b815162000325848260208601620002bc565b91505092915050565b6000602082840312156200034157600080fd5b600082015167ffffffffffffffff8111156200035c57600080fd5b6200036a8482850162000301565b91505092915050565b6000604051905081810181811067ffffffffffffffff821117156200039d576200039c62000475565b5b8060405250919050565b600067ffffffffffffffff821115620003c557620003c462000475565b5b601f19601f8301169050602081019050919050565b60005b83811015620003fa578082015181840152602081019050620003dd565b838111156200040a576000848401525b50505050565b600060028204905060018216806200042957607f821691505b6020821081141562000440576200043f62000446565b5b50919050565b7f4e487b7100000000000000000000000000000000000000000000000000000000600052602260045260246000fd5b7f4e487b7100000000000000000000000000000000000000000000000000000000600052604160045260246000fd5b612fac80620004b46000396000f3fe60806040526004361061011f5760003560e01c806370a08231116100a0578063b88d4fde11610064578063b88d4fde146103d5578063c87b56dd146103fe578063e985e9c51461043b578063f2fde38b14610478578063fa77983e146104a15761011f565b806370a0823114610302578063715018a61461033f5780638da5cb5b1461035657806395d89b4114610381578063a22cb465146103ac5761011f565b806323b872dd116100e757806323b872dd1461021d57806342842e0e146102465780634dc1dbec1461026f5780636352211e1461029a5780637018d298146102d75761011f565b806301ffc9a71461012457806306fdde0314610161578063081812fc1461018c578063095ea7b3146101c957806318160ddd146101f2575b600080fd5b34801561013057600080fd5b5061014b60048036038101906101469190611eb6565b6104bd565b60405161015891906127e6565b60405180910390f35b34801561016d57600080fd5b5061017661059f565b6040516101839190612801565b60405180910390f35b34801561019857600080fd5b506101b360048036038101906101ae9190611f08565b610631565b6040516101c0919061277f565b60405180910390f35b3480156101d557600080fd5b506101f060048036038101906101eb9190611e7a565b6106b6565b005b3480156101fe57600080fd5b506102076107ce565b6040516102149190612a99565b60405180910390f35b34801561022957600080fd5b50610244600480360381019061023f9190611d74565b6107e5565b005b34801561025257600080fd5b5061026d60048036038101906102689190611d74565b610845565b005b34801561027b57600080fd5b50610284610865565b6040516102919190612a7e565b60405180910390f35b3480156102a657600080fd5b506102c160048036038101906102bc9190611f08565b61086f565b6040516102ce919061277f565b60405180910390f35b3480156102e357600080fd5b506102ec610921565b6040516102f99190612a63565b60405180910390f35b34801561030e57600080fd5b5061032960048036038101906103249190611d0f565b610926565b6040516103369190612a7e565b60405180910390f35b34801561034b57600080fd5b506103546109de565b005b34801561036257600080fd5b5061036b610a66565b604051610378919061277f565b60405180910390f35b34801561038d57600080fd5b50610396610a90565b6040516103a39190612801565b60405180910390f35b3480156103b857600080fd5b506103d360048036038101906103ce9190611e3e565b610b22565b005b3480156103e157600080fd5b506103fc60048036038101906103f79190611dc3565b610ca3565b005b34801561040a57600080fd5b5061042560048036038101906104209190611f08565b610d05565b6040516104329190612801565b60405180910390f35b34801561044757600080fd5b50610462600480360381019061045d9190611d38565b610d65565b60405161046f91906127e6565b60405180910390f35b34801561048457600080fd5b5061049f600480360381019061049a9190611d0f565b610df9565b005b6104bb60048036038101906104b69190611f31565b610ef1565b005b60007f80ac58cd000000000000000000000000000000000000000000000000000000007bffffffffffffffffffffffffffffffffffffffffffffffffffffffff1916827bffffffffffffffffffffffffffffffffffffffffffffffffffffffff1916148061058857507f5b5e139f000000000000000000000000000000000000000000000000000000007bffffffffffffffffffffffffffffffffffffffffffffffffffffffff1916827bffffffffffffffffffffffffffffffffffffffffffffffffffffffff1916145b8061059857506105978261106f565b5b9050919050565b6060600080546105ae90612d8a565b80601f01602080910402602001604051908101604052809291908181526020018280546105da90612d8a565b80156106275780601f106105fc57610100808354040283529160200191610627565b820191906000526020600020905b81548152906001019060200180831161060a57829003601f168201915b5050505050905090565b600061063c826110d9565b61067b576040517f08c379a000000000000000000000000000000000000000000000000000000000815260040161067290612983565b60405180910390fd5b6004600083815260200190815260200160002060009054906101000a900473ffffffffffffffffffffffffffffffffffffffff169050919050565b60006106c18261086f565b90508073ffffffffffffffffffffffffffffffffffffffff168373ffffffffffffffffffffffffffffffffffffffff161415610732576040517f08c379a0000000000000000000000000000000000000000000000000000000008152600401610729906129e3565b60405180910390fd5b8073ffffffffffffffffffffffffffffffffffffffff16610751611145565b73ffffffffffffffffffffffffffffffffffffffff161480610780575061077f8161077a611145565b610d65565b5b6107bf576040517f08c379a00000000000000000000000000000000000000000000000000000000081526004016107b6906128e3565b60405180910390fd5b6107c9838361114d565b505050565b6000600a60009054906101000a900460ff16905090565b6107f66107f0611145565b82611206565b610835576040517f08c379a000000000000000000000000000000000000000000000000000000000815260040161082c90612a03565b60405180910390fd5b6108408383836112e4565b505050565b61086083838360405180602001604052806000815250610ca3565b505050565b6000600954905090565b6000806002600084815260200190815260200160002060009054906101000a900473ffffffffffffffffffffffffffffffffffffffff169050600073ffffffffffffffffffffffffffffffffffffffff168173ffffffffffffffffffffffffffffffffffffffff161415610918576040517f08c379a000000000000000000000000000000000000000000000000000000000815260040161090f90612923565b60405180910390fd5b80915050919050565b606481565b60008073ffffffffffffffffffffffffffffffffffffffff168273ffffffffffffffffffffffffffffffffffffffff161415610997576040517f08c379a000000000000000000000000000000000000000000000000000000000815260040161098e90612903565b60405180910390fd5b600360008373ffffffffffffffffffffffffffffffffffffffff1673ffffffffffffffffffffffffffffffffffffffff168152602001908152602001600020549050919050565b6109e6611145565b73ffffffffffffffffffffffffffffffffffffffff16610a04610a66565b73ffffffffffffffffffffffffffffffffffffffff1614610a5a576040517f08c379a0000000000000000000000000000000000000000000000000000000008152600401610a51906129a3565b60405180910390fd5b610a646000611540565b565b6000600660009054906101000a900473ffffffffffffffffffffffffffffffffffffffff16905090565b606060018054610a9f90612d8a565b80601f0160208091040260200160405190810160405280929190818152602001828054610acb90612d8a565b8015610b185780601f10610aed57610100808354040283529160200191610b18565b820191906000526020600020905b815481529060010190602001808311610afb57829003601f168201915b5050505050905090565b610b2a611145565b73ffffffffffffffffffffffffffffffffffffffff168273ffffffffffffffffffffffffffffffffffffffff161415610b98576040517f08c379a0000000000000000000000000000000000000000000000000000000008152600401610b8f906128a3565b60405180910390fd5b8060056000610ba5611145565b73ffffffffffffffffffffffffffffffffffffffff1673ffffffffffffffffffffffffffffffffffffffff16815260200190815260200160002060008473ffffffffffffffffffffffffffffffffffffffff1673ffffffffffffffffffffffffffffffffffffffff16815260200190815260200160002060006101000a81548160ff0219169083151502179055508173ffffffffffffffffffffffffffffffffffffffff16610c52611145565b73ffffffffffffffffffffffffffffffffffffffff167f17307eab39ab6107e8899845ad3d59bd9653f200f220920489ca2b5937696c3183604051610c9791906127e6565b60405180910390a35050565b610cb4610cae611145565b83611206565b610cf3576040517f08c379a0000000000000000000000000000000000000000000000000000000008152600401610cea90612a03565b60405180910390fd5b610cff84848484611606565b50505050565b6060600060088054610d1690612d8a565b905011610d325760405180602001604052806000815250610d5e565b6008610d3d83611662565b604051602001610d4e92919061275b565b6040516020818303038152906040525b9050919050565b6000600560008473ffffffffffffffffffffffffffffffffffffffff1673ffffffffffffffffffffffffffffffffffffffff16815260200190815260200160002060008373ffffffffffffffffffffffffffffffffffffffff1673ffffffffffffffffffffffffffffffffffffffff16815260200190815260200160002060009054906101000a900460ff16905092915050565b610e01611145565b73ffffffffffffffffffffffffffffffffffffffff16610e1f610a66565b73ffffffffffffffffffffffffffffffffffffffff1614610e75576040517f08c379a0000000000000000000000000000000000000000000000000000000008152600401610e6c906129a3565b60405180910390fd5b600073ffffffffffffffffffffffffffffffffffffffff168173ffffffffffffffffffffffffffffffffffffffff161415610ee5576040517f08c379a0000000000000000000000000000000000000000000000000000000008152600401610edc90612843565b60405180910390fd5b610eee81611540565b50565b606461ffff1681600a60009054906101000a900460ff16610f129190612bc3565b60ff161115610f56576040517f08c379a0000000000000000000000000000000000000000000000000000000008152600401610f4d90612a23565b60405180910390fd5b60028160ff161115610f9d576040517f08c379a0000000000000000000000000000000000000000000000000000000008152600401610f9490612a43565b60405180910390fd5b8060ff16600954610fae9190612c2b565b341015610ff0576040517f08c379a0000000000000000000000000000000000000000000000000000000008152600401610fe790612943565b60405180910390fd5b60005b8160ff1681101561106b57611008600761180f565b60006110146007611825565b90506001600a60008282829054906101000a900460ff166110359190612bc3565b92506101000a81548160ff021916908360ff1602179055506110573382611833565b50808061106390612dbc565b915050610ff3565b5050565b60007f01ffc9a7000000000000000000000000000000000000000000000000000000007bffffffffffffffffffffffffffffffffffffffffffffffffffffffff1916827bffffffffffffffffffffffffffffffffffffffffffffffffffffffff1916149050919050565b60008073ffffffffffffffffffffffffffffffffffffffff166002600084815260200190815260200160002060009054906101000a900473ffffffffffffffffffffffffffffffffffffffff1673ffffffffffffffffffffffffffffffffffffffff1614159050919050565b600033905090565b816004600083815260200190815260200160002060006101000a81548173ffffffffffffffffffffffffffffffffffffffff021916908373ffffffffffffffffffffffffffffffffffffffff160217905550808273ffffffffffffffffffffffffffffffffffffffff166111c08361086f565b73ffffffffffffffffffffffffffffffffffffffff167f8c5be1e5ebec7d5bd14f71427d1e84f3dd0314c0f7b2291e5b200ac8c7c3b92560405160405180910390a45050565b6000611211826110d9565b611250576040517f08c379a0000000000000000000000000000000000000000000000000000000008152600401611247906128c3565b60405180910390fd5b600061125b8361086f565b90508073ffffffffffffffffffffffffffffffffffffffff168473ffffffffffffffffffffffffffffffffffffffff1614806112ca57508373ffffffffffffffffffffffffffffffffffffffff166112b284610631565b73ffffffffffffffffffffffffffffffffffffffff16145b806112db57506112da8185610d65565b5b91505092915050565b8273ffffffffffffffffffffffffffffffffffffffff166113048261086f565b73ffffffffffffffffffffffffffffffffffffffff161461135a576040517f08c379a0000000000000000000000000000000000000000000000000000000008152600401611351906129c3565b60405180910390fd5b600073ffffffffffffffffffffffffffffffffffffffff168273ffffffffffffffffffffffffffffffffffffffff1614156113ca576040517f08c379a00000000000000000000000000000000000000000000000000000000081526004016113c190612883565b60405180910390fd5b6113d5838383611851565b6113e060008261114d565b6001600360008573ffffffffffffffffffffffffffffffffffffffff1673ffffffffffffffffffffffffffffffffffffffff16815260200190815260200160002060008282546114309190612c85565b925050819055506001600360008473ffffffffffffffffffffffffffffffffffffffff1673ffffffffffffffffffffffffffffffffffffffff16815260200190815260200160002060008282546114879190612b6d565b92505081905550816002600083815260200190815260200160002060006101000a81548173ffffffffffffffffffffffffffffffffffffffff021916908373ffffffffffffffffffffffffffffffffffffffff160217905550808273ffffffffffffffffffffffffffffffffffffffff168473ffffffffffffffffffffffffffffffffffffffff167fddf252ad1be2c89b69c2b068fc378daa952ba7f163c4a11628f55a4df523b3ef60405160405180910390a4505050565b6000600660009054906101000a900473ffffffffffffffffffffffffffffffffffffffff16905081600660006101000a81548173ffffffffffffffffffffffffffffffffffffffff021916908373ffffffffffffffffffffffffffffffffffffffff1602179055508173ffffffffffffffffffffffffffffffffffffffff168173ffffffffffffffffffffffffffffffffffffffff167f8be0079c531659141344cd1fd0a4f28419497f9722a3daafe3b4186f6b6457e060405160405180910390a35050565b6116118484846112e4565b61161d84848484611856565b61165c576040517f08c379a000000000000000000000000000000000000000000000000000000000815260040161165390612823565b60405180910390fd5b50505050565b606060008214156116aa576040518060400160405280600181526020017f3000000000000000000000000000000000000000000000000000000000000000815250905061180a565b600082905060005b600082146116dc5780806116c590612dbc565b915050600a826116d59190612bfa565b91506116b2565b60008167ffffffffffffffff81111561171e577f4e487b7100000000000000000000000000000000000000000000000000000000600052604160045260246000fd5b6040519080825280601f01601f1916602001820160405280156117505781602001600182028036833780820191505090505b5090505b60008514611803576001826117699190612c85565b9150600a856117789190612e05565b60306117849190612b6d565b60f81b8183815181106117c0577f4e487b7100000000000000000000000000000000000000000000000000000000600052603260045260246000fd5b60200101907effffffffffffffffffffffffffffffffffffffffffffffffffffffffffffff1916908160001a905350600a856117fc9190612bfa565b9450611754565b8093505050505b919050565b6001816000016000828254019250508190555050565b600081600001549050919050565b61184d8282604051806020016040528060008152506119ed565b5050565b505050565b60006118778473ffffffffffffffffffffffffffffffffffffffff16611a48565b156119e0578373ffffffffffffffffffffffffffffffffffffffff1663150b7a026118a0611145565b8786866040518563ffffffff1660e01b81526004016118c2949392919061279a565b602060405180830381600087803b1580156118dc57600080fd5b505af192505050801561190d57506040513d601f19601f8201168201806040525081019061190a9190611edf565b60015b611990573d806000811461193d576040519150601f19603f3d011682016040523d82523d6000602084013e611942565b606091505b50600081511415611988576040517f08c379a000000000000000000000000000000000000000000000000000000000815260040161197f90612823565b60405180910390fd5b805181602001fd5b63150b7a0260e01b7bffffffffffffffffffffffffffffffffffffffffffffffffffffffff1916817bffffffffffffffffffffffffffffffffffffffffffffffffffffffff1916149150506119e5565b600190505b949350505050565b6119f78383611a5b565b611a046000848484611856565b611a43576040517f08c379a0000000000000000000000000000000000000000000000000000000008152600401611a3a90612823565b60405180910390fd5b505050565b600080823b905060008111915050919050565b600073ffffffffffffffffffffffffffffffffffffffff168273ffffffffffffffffffffffffffffffffffffffff161415611acb576040517f08c379a0000000000000000000000000000000000000000000000000000000008152600401611ac290612963565b60405180910390fd5b611ad4816110d9565b15611b14576040517f08c379a0000000000000000000000000000000000000000000000000000000008152600401611b0b90612863565b60405180910390fd5b611b2060008383611851565b6001600360008473ffffffffffffffffffffffffffffffffffffffff1673ffffffffffffffffffffffffffffffffffffffff1681526020019081526020016000206000828254611b709190612b6d565b92505081905550816002600083815260200190815260200160002060006101000a81548173ffffffffffffffffffffffffffffffffffffffff021916908373ffffffffffffffffffffffffffffffffffffffff160217905550808273ffffffffffffffffffffffffffffffffffffffff16600073ffffffffffffffffffffffffffffffffffffffff167fddf252ad1be2c89b69c2b068fc378daa952ba7f163c4a11628f55a4df523b3ef60405160405180910390a45050565b6000611c3c611c3784612ae5565b612ab4565b905082815260208101848484011115611c5457600080fd5b611c5f848285612d48565b509392505050565b600081359050611c7681612f03565b92915050565b600081359050611c8b81612f1a565b92915050565b600081359050611ca081612f31565b92915050565b600081519050611cb581612f31565b92915050565b600082601f830112611ccc57600080fd5b8135611cdc848260208601611c29565b91505092915050565b600081359050611cf481612f48565b92915050565b600081359050611d0981612f5f565b92915050565b600060208284031215611d2157600080fd5b6000611d2f84828501611c67565b91505092915050565b60008060408385031215611d4b57600080fd5b6000611d5985828601611c67565b9250506020611d6a85828601611c67565b9150509250929050565b600080600060608486031215611d8957600080fd5b6000611d9786828701611c67565b9350506020611da886828701611c67565b9250506040611db986828701611ce5565b9150509250925092565b60008060008060808587031215611dd957600080fd5b6000611de787828801611c67565b9450506020611df887828801611c67565b9350506040611e0987828801611ce5565b925050606085013567ffffffffffffffff811115611e2657600080fd5b611e3287828801611cbb565b91505092959194509250565b60008060408385031215611e5157600080fd5b6000611e5f85828601611c67565b9250506020611e7085828601611c7c565b9150509250929050565b60008060408385031215611e8d57600080fd5b6000611e9b85828601611c67565b9250506020611eac85828601611ce5565b9150509250929050565b600060208284031215611ec857600080fd5b6000611ed684828501611c91565b91505092915050565b600060208284031215611ef157600080fd5b6000611eff84828501611ca6565b91505092915050565b600060208284031215611f1a57600080fd5b6000611f2884828501611ce5565b91505092915050565b600060208284031215611f4357600080fd5b6000611f5184828501611cfa565b91505092915050565b611f6381612cb9565b82525050565b611f7281612ccb565b82525050565b6000611f8382612b2a565b611f8d8185612b40565b9350611f9d818560208601612d57565b611fa681612ef2565b840191505092915050565b6000611fbc82612b35565b611fc68185612b51565b9350611fd6818560208601612d57565b611fdf81612ef2565b840191505092915050565b6000611ff582612b35565b611fff8185612b62565b935061200f818560208601612d57565b80840191505092915050565b6000815461202881612d8a565b6120328186612b62565b9450600182166000811461204d576001811461205e57612091565b60ff19831686528186019350612091565b61206785612b15565b60005b838110156120895781548189015260018201915060208101905061206a565b838801955050505b50505092915050565b60006120a7603283612b51565b91507f4552433732313a207472616e7366657220746f206e6f6e20455243373231526560008301527f63656976657220696d706c656d656e74657200000000000000000000000000006020830152604082019050919050565b600061210d602683612b51565b91507f4f776e61626c653a206e6577206f776e657220697320746865207a65726f206160008301527f64647265737300000000000000000000000000000000000000000000000000006020830152604082019050919050565b6000612173601c83612b51565b91507f4552433732313a20746f6b656e20616c7265616479206d696e746564000000006000830152602082019050919050565b60006121b3602483612b51565b91507f4552433732313a207472616e7366657220746f20746865207a65726f2061646460008301527f72657373000000000000000000000000000000000000000000000000000000006020830152604082019050919050565b6000612219601983612b51565b91507f4552433732313a20617070726f766520746f2063616c6c6572000000000000006000830152602082019050919050565b6000612259602c83612b51565b91507f4552433732313a206f70657261746f7220717565727920666f72206e6f6e657860008301527f697374656e7420746f6b656e00000000000000000000000000000000000000006020830152604082019050919050565b60006122bf603883612b51565b91507f4552433732313a20617070726f76652063616c6c6572206973206e6f74206f7760008301527f6e6572206e6f7220617070726f76656420666f7220616c6c00000000000000006020830152604082019050919050565b6000612325602a83612b51565b91507f4552433732313a2062616c616e636520717565727920666f7220746865207a6560008301527f726f2061646472657373000000000000000000000000000000000000000000006020830152604082019050919050565b600061238b602983612b51565b91507f4552433732313a206f776e657220717565727920666f72206e6f6e657869737460008301527f656e7420746f6b656e00000000000000000000000000000000000000000000006020830152604082019050919050565b60006123f1602383612b51565b91507f45746865722076616c75652073656e742069732062656c6f772074686520707260008301527f69636500000000000000000000000000000000000000000000000000000000006020830152604082019050919050565b6000612457602083612b51565b91507f4552433732313a206d696e7420746f20746865207a65726f20616464726573736000830152602082019050919050565b6000612497602c83612b51565b91507f4552433732313a20617070726f76656420717565727920666f72206e6f6e657860008301527f697374656e7420746f6b656e00000000000000000000000000000000000000006020830152604082019050919050565b60006124fd602083612b51565b91507f4f776e61626c653a2063616c6c6572206973206e6f7420746865206f776e65726000830152602082019050919050565b600061253d602983612b51565b91507f4552433732313a207472616e73666572206f6620746f6b656e2074686174206960008301527f73206e6f74206f776e00000000000000000000000000000000000000000000006020830152604082019050919050565b60006125a3602183612b51565b91507f4552433732313a20617070726f76616c20746f2063757272656e74206f776e6560008301527f72000000000000000000000000000000000000000000000000000000000000006020830152604082019050919050565b6000612609603183612b51565b91507f4552433732313a207472616e736665722063616c6c6572206973206e6f74206f60008301527f776e6572206e6f7220617070726f7665640000000000000000000000000000006020830152604082019050919050565b600061266f602883612b51565b91507f4d696e74696e6720776f756c6420657863656564206d617820616c6c6f77656460008301527f204e696e6a61732e0000000000000000000000000000000000000000000000006020830152604082019050919050565b60006126d5603183612b51565b91507f596f752063616e206d696e74206174206d6f73742032206e696e6a617320696e60008301527f206f6e65207472616e73616374696f6e2e0000000000000000000000000000006020830152604082019050919050565b61273781612d03565b82525050565b61274681612d31565b82525050565b61275581612d3b565b82525050565b6000612767828561201b565b91506127738284611fea565b91508190509392505050565b60006020820190506127946000830184611f5a565b92915050565b60006080820190506127af6000830187611f5a565b6127bc6020830186611f5a565b6127c9604083018561273d565b81810360608301526127db8184611f78565b905095945050505050565b60006020820190506127fb6000830184611f69565b92915050565b6000602082019050818103600083015261281b8184611fb1565b905092915050565b6000602082019050818103600083015261283c8161209a565b9050919050565b6000602082019050818103600083015261285c81612100565b9050919050565b6000602082019050818103600083015261287c81612166565b9050919050565b6000602082019050818103600083015261289c816121a6565b9050919050565b600060208201905081810360008301526128bc8161220c565b9050919050565b600060208201905081810360008301526128dc8161224c565b9050919050565b600060208201905081810360008301526128fc816122b2565b9050919050565b6000602082019050818103600083015261291c81612318565b9050919050565b6000602082019050818103600083015261293c8161237e565b9050919050565b6000602082019050818103600083015261295c816123e4565b9050919050565b6000602082019050818103600083015261297c8161244a565b9050919050565b6000602082019050818103600083015261299c8161248a565b9050919050565b600060208201905081810360008301526129bc816124f0565b9050919050565b600060208201905081810360008301526129dc81612530565b9050919050565b600060208201905081810360008301526129fc81612596565b9050919050565b60006020820190508181036000830152612a1c816125fc565b9050919050565b60006020820190508181036000830152612a3c81612662565b9050919050565b60006020820190508181036000830152612a5c816126c8565b9050919050565b6000602082019050612a78600083018461272e565b92915050565b6000602082019050612a93600083018461273d565b92915050565b6000602082019050612aae600083018461274c565b92915050565b6000604051905081810181811067ffffffffffffffff82111715612adb57612ada612ec3565b5b8060405250919050565b600067ffffffffffffffff821115612b0057612aff612ec3565b5b601f19601f8301169050602081019050919050565b60008190508160005260206000209050919050565b600081519050919050565b600081519050919050565b600082825260208201905092915050565b600082825260208201905092915050565b600081905092915050565b6000612b7882612d31565b9150612b8383612d31565b9250827fffffffffffffffffffffffffffffffffffffffffffffffffffffffffffffffff03821115612bb857612bb7612e36565b5b828201905092915050565b6000612bce82612d3b565b9150612bd983612d3b565b92508260ff03821115612bef57612bee612e36565b5b828201905092915050565b6000612c0582612d31565b9150612c1083612d31565b925082612c2057612c1f612e65565b5b828204905092915050565b6000612c3682612d31565b9150612c4183612d31565b9250817fffffffffffffffffffffffffffffffffffffffffffffffffffffffffffffffff0483118215151615612c7a57612c79612e36565b5b828202905092915050565b6000612c9082612d31565b9150612c9b83612d31565b925082821015612cae57612cad612e36565b5b828203905092915050565b6000612cc482612d11565b9050919050565b60008115159050919050565b60007fffffffff0000000000000000000000000000000000000000000000000000000082169050919050565b600061ffff82169050919050565b600073ffffffffffffffffffffffffffffffffffffffff82169050919050565b6000819050919050565b600060ff82169050919050565b82818337600083830152505050565b60005b83811015612d75578082015181840152602081019050612d5a565b83811115612d84576000848401525b50505050565b60006002820490506001821680612da257607f821691505b60208210811415612db657612db5612e94565b5b50919050565b6000612dc782612d31565b91507fffffffffffffffffffffffffffffffffffffffffffffffffffffffffffffffff821415612dfa57612df9612e36565b5b600182019050919050565b6000612e1082612d31565b9150612e1b83612d31565b925082612e2b57612e2a612e65565b5b828206905092915050565b7f4e487b7100000000000000000000000000000000000000000000000000000000600052601160045260246000fd5b7f4e487b7100000000000000000000000000000000000000000000000000000000600052601260045260246000fd5b7f4e487b7100000000000000000000000000000000000000000000000000000000600052602260045260246000fd5b7f4e487b7100000000000000000000000000000000000000000000000000000000600052604160045260246000fd5b6000601f19601f8301169050919050565b612f0c81612cb9565b8114612f1757600080fd5b50565b612f2381612ccb565b8114612f2e57600080fd5b50565b612f3a81612cd7565b8114612f4557600080fd5b50565b612f5181612d31565b8114612f5c57600080fd5b50565b612f6881612d3b565b8114612f7357600080fd5b5056fea2646970667358221220e2a2b77c8226e5ed242248a3429b3404070bfd9590f0395ddd33bd482e65920364736f6c63430008000033",
  "linkReferences": {},
  "deployedLinkReferences": {}
}