{
  "_format": "hh-sol-artifact-1",
  "contractName": "CuteNinjas",
  "sourceName": "contracts/CuteNinjas.sol",
  "abi": [
    {
      "inputs": [
        {
          "internalType": "string",
          "name": "bURI",
          "type": "string"
        },
        {
          "internalType": "string",
          "name": "cURI",
          "type": "string"
        }
      ],
      "stateMutability": "nonpayable",
      "type": "constructor"
    },
    {
      "anonymous": false,
      "inputs": [
        {
          "indexed": true,
          "internalType": "address",
          "name": "owner",
          "type": "address"
        },
        {
          "indexed": true,
          "internalType": "address",
          "name": "approved",
          "type": "address"
        },
        {
          "indexed": true,
          "internalType": "uint256",
          "name": "tokenId",
          "type": "uint256"
        }
      ],
      "name": "Approval",
      "type": "event"
    },
    {
      "anonymous": false,
      "inputs": [
        {
          "indexed": true,
          "internalType": "address",
          "name": "owner",
          "type": "address"
        },
        {
          "indexed": true,
          "internalType": "address",
          "name": "operator",
          "type": "address"
        },
        {
          "indexed": false,
          "internalType": "bool",
          "name": "approved",
          "type": "bool"
        }
      ],
      "name": "ApprovalForAll",
      "type": "event"
    },
    {
      "anonymous": false,
      "inputs": [
        {
          "indexed": true,
          "internalType": "address",
          "name": "previousOwner",
          "type": "address"
        },
        {
          "indexed": true,
          "internalType": "address",
          "name": "newOwner",
          "type": "address"
        }
      ],
      "name": "OwnershipTransferred",
      "type": "event"
    },
    {
      "anonymous": false,
      "inputs": [
        {
          "indexed": true,
          "internalType": "address",
          "name": "from",
          "type": "address"
        },
        {
          "indexed": true,
          "internalType": "address",
          "name": "to",
          "type": "address"
        },
        {
          "indexed": true,
          "internalType": "uint256",
          "name": "tokenId",
          "type": "uint256"
        }
      ],
      "name": "Transfer",
      "type": "event"
    },
    {
      "inputs": [],
      "name": "MAX_NINJAS",
      "outputs": [
        {
          "internalType": "uint16",
          "name": "",
          "type": "uint16"
        }
      ],
      "stateMutability": "view",
      "type": "function"
    },
    {
      "inputs": [
        {
          "internalType": "address",
          "name": "to",
          "type": "address"
        },
        {
          "internalType": "uint256",
          "name": "tokenId",
          "type": "uint256"
        }
      ],
      "name": "approve",
      "outputs": [],
      "stateMutability": "nonpayable",
      "type": "function"
    },
    {
      "inputs": [
        {
          "internalType": "address",
          "name": "owner",
          "type": "address"
        }
      ],
      "name": "balanceOf",
      "outputs": [
        {
          "internalType": "uint256",
          "name": "",
          "type": "uint256"
        }
      ],
      "stateMutability": "view",
      "type": "function"
    },
    {
      "inputs": [],
      "name": "contractURI",
      "outputs": [
        {
          "internalType": "string",
          "name": "",
          "type": "string"
        }
      ],
      "stateMutability": "view",
      "type": "function"
    },
    {
      "inputs": [
        {
          "internalType": "uint256",
          "name": "tokenId",
          "type": "uint256"
        }
      ],
      "name": "getApproved",
      "outputs": [
        {
          "internalType": "address",
          "name": "",
          "type": "address"
        }
      ],
      "stateMutability": "view",
      "type": "function"
    },
    {
      "inputs": [],
      "name": "getBaseURI",
      "outputs": [
        {
          "internalType": "string",
          "name": "",
          "type": "string"
        }
      ],
      "stateMutability": "view",
      "type": "function"
    },
    {
      "inputs": [
        {
          "internalType": "address",
          "name": "owner",
          "type": "address"
        },
        {
          "internalType": "address",
          "name": "operator",
          "type": "address"
        }
      ],
      "name": "isApprovedForAll",
      "outputs": [
        {
          "internalType": "bool",
          "name": "",
          "type": "bool"
        }
      ],
      "stateMutability": "view",
      "type": "function"
    },
    {
      "inputs": [
        {
          "internalType": "uint8",
          "name": "numNinjas",
          "type": "uint8"
        }
      ],
      "name": "mintNFT",
      "outputs": [],
      "stateMutability": "payable",
      "type": "function"
    },
    {
      "inputs": [],
      "name": "name",
      "outputs": [
        {
          "internalType": "string",
          "name": "",
          "type": "string"
        }
      ],
      "stateMutability": "view",
      "type": "function"
    },
    {
      "inputs": [],
      "name": "ninjaPrice",
      "outputs": [
        {
          "internalType": "uint256",
          "name": "",
          "type": "uint256"
        }
      ],
      "stateMutability": "view",
      "type": "function"
    },
    {
      "inputs": [],
      "name": "owner",
      "outputs": [
        {
          "internalType": "address",
          "name": "",
          "type": "address"
        }
      ],
      "stateMutability": "view",
      "type": "function"
    },
    {
      "inputs": [
        {
          "internalType": "uint256",
          "name": "tokenId",
          "type": "uint256"
        }
      ],
      "name": "ownerOf",
      "outputs": [
        {
          "internalType": "address",
          "name": "",
          "type": "address"
        }
      ],
      "stateMutability": "view",
      "type": "function"
    },
    {
      "inputs": [],
      "name": "renounceOwnership",
      "outputs": [],
      "stateMutability": "nonpayable",
      "type": "function"
    },
    {
      "inputs": [
        {
          "internalType": "address",
          "name": "from",
          "type": "address"
        },
        {
          "internalType": "address",
          "name": "to",
          "type": "address"
        },
        {
          "internalType": "uint256",
          "name": "tokenId",
          "type": "uint256"
        }
      ],
      "name": "safeTransferFrom",
      "outputs": [],
      "stateMutability": "nonpayable",
      "type": "function"
    },
    {
      "inputs": [
        {
          "internalType": "address",
          "name": "from",
          "type": "address"
        },
        {
          "internalType": "address",
          "name": "to",
          "type": "address"
        },
        {
          "internalType": "uint256",
          "name": "tokenId",
          "type": "uint256"
        },
        {
          "internalType": "bytes",
          "name": "_data",
          "type": "bytes"
        }
      ],
      "name": "safeTransferFrom",
      "outputs": [],
      "stateMutability": "nonpayable",
      "type": "function"
    },
    {
      "inputs": [
        {
          "internalType": "address",
          "name": "operator",
          "type": "address"
        },
        {
          "internalType": "bool",
          "name": "approved",
          "type": "bool"
        }
      ],
      "name": "setApprovalForAll",
      "outputs": [],
      "stateMutability": "nonpayable",
      "type": "function"
    },
    {
      "inputs": [
        {
          "internalType": "string",
          "name": "newBaseURI",
          "type": "string"
        }
      ],
      "name": "setBaseURI",
      "outputs": [],
      "stateMutability": "nonpayable",
      "type": "function"
    },
    {
      "inputs": [
        {
          "internalType": "string",
          "name": "newContractURI",
          "type": "string"
        }
      ],
      "name": "setContractURI",
      "outputs": [],
      "stateMutability": "nonpayable",
      "type": "function"
    },
    {
      "inputs": [
        {
          "internalType": "bytes4",
          "name": "interfaceId",
          "type": "bytes4"
        }
      ],
      "name": "supportsInterface",
      "outputs": [
        {
          "internalType": "bool",
          "name": "",
          "type": "bool"
        }
      ],
      "stateMutability": "view",
      "type": "function"
    },
    {
      "inputs": [],
      "name": "symbol",
      "outputs": [
        {
          "internalType": "string",
          "name": "",
          "type": "string"
        }
      ],
      "stateMutability": "view",
      "type": "function"
    },
    {
      "inputs": [
        {
          "internalType": "uint256",
          "name": "tokenId",
          "type": "uint256"
        }
      ],
      "name": "tokenURI",
      "outputs": [
        {
          "internalType": "string",
          "name": "",
          "type": "string"
        }
      ],
      "stateMutability": "view",
      "type": "function"
    },
    {
      "inputs": [],
      "name": "totalSupply",
      "outputs": [
        {
          "internalType": "uint8",
          "name": "",
          "type": "uint8"
        }
      ],
      "stateMutability": "view",
      "type": "function"
    },
    {
      "inputs": [
        {
          "internalType": "address",
          "name": "from",
          "type": "address"
        },
        {
          "internalType": "address",
          "name": "to",
          "type": "address"
        },
        {
          "internalType": "uint256",
          "name": "tokenId",
          "type": "uint256"
        }
      ],
      "name": "transferFrom",
      "outputs": [],
      "stateMutability": "nonpayable",
      "type": "function"
    },
    {
      "inputs": [
        {
          "internalType": "address",
          "name": "newOwner",
          "type": "address"
        }
      ],
      "name": "transferOwnership",
      "outputs": [],
      "stateMutability": "nonpayable",
      "type": "function"
    }
  ],
  "bytecode": "0x6080604052662386f26fc10000600a556000600b60006101000a81548160ff021916908360ff1602179055503480156200003857600080fd5b50604051620039443803806200394483398181016040528101906200005e919062000348565b6040518060400160405280600a81526020017f437574654e696e6a6173000000000000000000000000000000000000000000008152506040518060400160405280600381526020017f434e4a00000000000000000000000000000000000000000000000000000000008152508160009080519060200190620000e292919062000226565b508060019080519060200190620000fb92919062000226565b5050506200011e620001126200015860201b60201c565b6200016060201b60201c565b81600890805190602001906200013692919062000226565b5080600990805190602001906200014f92919062000226565b505050620004ec565b600033905090565b6000600660009054906101000a900473ffffffffffffffffffffffffffffffffffffffff16905081600660006101000a81548173ffffffffffffffffffffffffffffffffffffffff021916908373ffffffffffffffffffffffffffffffffffffffff1602179055508173ffffffffffffffffffffffffffffffffffffffff168173ffffffffffffffffffffffffffffffffffffffff167f8be0079c531659141344cd1fd0a4f28419497f9722a3daafe3b4186f6b6457e060405160405180910390a35050565b828054620002349062000458565b90600052602060002090601f016020900481019282620002585760008555620002a4565b82601f106200027357805160ff1916838001178555620002a4565b82800160010185558215620002a4579182015b82811115620002a357825182559160200191906001019062000286565b5b509050620002b39190620002b7565b5090565b5b80821115620002d2576000816000905550600101620002b8565b5090565b6000620002ed620002e784620003ef565b620003bb565b9050828152602081018484840111156200030657600080fd5b6200031384828562000422565b509392505050565b600082601f8301126200032d57600080fd5b81516200033f848260208601620002d6565b91505092915050565b600080604083850312156200035c57600080fd5b600083015167ffffffffffffffff8111156200037757600080fd5b62000385858286016200031b565b925050602083015167ffffffffffffffff811115620003a357600080fd5b620003b1858286016200031b565b9150509250929050565b6000604051905081810181811067ffffffffffffffff82111715620003e557620003e4620004bd565b5b8060405250919050565b600067ffffffffffffffff8211156200040d576200040c620004bd565b5b601f19601f8301169050602081019050919050565b60005b838110156200044257808201518184015260208101905062000425565b8381111562000452576000848401525b50505050565b600060028204905060018216806200047157607f821691505b602082108114156200048857620004876200048e565b5b50919050565b7f4e487b7100000000000000000000000000000000000000000000000000000000600052602260045260246000fd5b7f4e487b7100000000000000000000000000000000000000000000000000000000600052604160045260246000fd5b61344880620004fc6000396000f3fe60806040526004361061014b5760003560e01c8063715018a6116100b6578063c87b56dd1161006f578063c87b56dd1461047c578063d79a5468146104b9578063e8a3d485146104e4578063e985e9c51461050f578063f2fde38b1461054c578063fa77983e146105755761014b565b8063715018a6146103945780638da5cb5b146103ab578063938e3d7b146103d657806395d89b41146103ff578063a22cb4651461042a578063b88d4fde146104535761014b565b806342842e0e1161010857806342842e0e1461027257806355f804b31461029b5780636352211e146102c45780637018d2981461030157806370a082311461032c578063714c5398146103695761014b565b806301ffc9a71461015057806306fdde031461018d578063081812fc146101b8578063095ea7b3146101f557806318160ddd1461021e57806323b872dd14610249575b600080fd5b34801561015c57600080fd5b50610177600480360381019061017291906122e1565b610591565b6040516101849190612c52565b60405180910390f35b34801561019957600080fd5b506101a2610673565b6040516101af9190612c6d565b60405180910390f35b3480156101c457600080fd5b506101df60048036038101906101da9190612374565b610705565b6040516101ec9190612beb565b60405180910390f35b34801561020157600080fd5b5061021c600480360381019061021791906122a5565b61078a565b005b34801561022a57600080fd5b506102336108a2565b6040516102409190612f05565b60405180910390f35b34801561025557600080fd5b50610270600480360381019061026b919061219f565b6108b9565b005b34801561027e57600080fd5b506102996004803603810190610294919061219f565b610919565b005b3480156102a757600080fd5b506102c260048036038101906102bd9190612333565b610939565b005b3480156102d057600080fd5b506102eb60048036038101906102e69190612374565b6109cf565b6040516102f89190612beb565b60405180910390f35b34801561030d57600080fd5b50610316610a81565b6040516103239190612ecf565b60405180910390f35b34801561033857600080fd5b50610353600480360381019061034e919061213a565b610a86565b6040516103609190612eea565b60405180910390f35b34801561037557600080fd5b5061037e610b3e565b60405161038b9190612c6d565b60405180910390f35b3480156103a057600080fd5b506103a9610bd0565b005b3480156103b757600080fd5b506103c0610c58565b6040516103cd9190612beb565b60405180910390f35b3480156103e257600080fd5b506103fd60048036038101906103f89190612333565b610c82565b005b34801561040b57600080fd5b50610414610d18565b6040516104219190612c6d565b60405180910390f35b34801561043657600080fd5b50610451600480360381019061044c9190612269565b610daa565b005b34801561045f57600080fd5b5061047a600480360381019061047591906121ee565b610f2b565b005b34801561048857600080fd5b506104a3600480360381019061049e9190612374565b610f8d565b6040516104b09190612c6d565b60405180910390f35b3480156104c557600080fd5b506104ce610fed565b6040516104db9190612eea565b60405180910390f35b3480156104f057600080fd5b506104f9610ff3565b6040516105069190612c6d565b60405180910390f35b34801561051b57600080fd5b5061053660048036038101906105319190612163565b611085565b6040516105439190612c52565b60405180910390f35b34801561055857600080fd5b50610573600480360381019061056e919061213a565b611119565b005b61058f600480360381019061058a919061239d565b611211565b005b60007f80ac58cd000000000000000000000000000000000000000000000000000000007bffffffffffffffffffffffffffffffffffffffffffffffffffffffff1916827bffffffffffffffffffffffffffffffffffffffffffffffffffffffff1916148061065c57507f5b5e139f000000000000000000000000000000000000000000000000000000007bffffffffffffffffffffffffffffffffffffffffffffffffffffffff1916827bffffffffffffffffffffffffffffffffffffffffffffffffffffffff1916145b8061066c575061066b8261138f565b5b9050919050565b60606000805461068290613226565b80601f01602080910402602001604051908101604052809291908181526020018280546106ae90613226565b80156106fb5780601f106106d0576101008083540402835291602001916106fb565b820191906000526020600020905b8154815290600101906020018083116106de57829003601f168201915b5050505050905090565b6000610710826113f9565b61074f576040517f08c379a000000000000000000000000000000000000000000000000000000000815260040161074690612def565b60405180910390fd5b6004600083815260200190815260200160002060009054906101000a900473ffffffffffffffffffffffffffffffffffffffff169050919050565b6000610795826109cf565b90508073ffffffffffffffffffffffffffffffffffffffff168373ffffffffffffffffffffffffffffffffffffffff161415610806576040517f08c379a00000000000000000000000000000000000000000000000000000000081526004016107fd90612e4f565b60405180910390fd5b8073ffffffffffffffffffffffffffffffffffffffff16610825611465565b73ffffffffffffffffffffffffffffffffffffffff16148061085457506108538161084e611465565b611085565b5b610893576040517f08c379a000000000000000000000000000000000000000000000000000000000815260040161088a90612d4f565b60405180910390fd5b61089d838361146d565b505050565b6000600b60009054906101000a900460ff16905090565b6108ca6108c4611465565b82611526565b610909576040517f08c379a000000000000000000000000000000000000000000000000000000000815260040161090090612e6f565b60405180910390fd5b610914838383611604565b505050565b61093483838360405180602001604052806000815250610f2b565b505050565b610941611465565b73ffffffffffffffffffffffffffffffffffffffff1661095f610c58565b73ffffffffffffffffffffffffffffffffffffffff16146109b5576040517f08c379a00000000000000000000000000000000000000000000000000000000081526004016109ac90612e0f565b60405180910390fd5b80600890805190602001906109cb929190611f49565b5050565b6000806002600084815260200190815260200160002060009054906101000a900473ffffffffffffffffffffffffffffffffffffffff169050600073ffffffffffffffffffffffffffffffffffffffff168173ffffffffffffffffffffffffffffffffffffffff161415610a78576040517f08c379a0000000000000000000000000000000000000000000000000000000008152600401610a6f90612d8f565b60405180910390fd5b80915050919050565b606481565b60008073ffffffffffffffffffffffffffffffffffffffff168273ffffffffffffffffffffffffffffffffffffffff161415610af7576040517f08c379a0000000000000000000000000000000000000000000000000000000008152600401610aee90612d6f565b60405180910390fd5b600360008373ffffffffffffffffffffffffffffffffffffffff1673ffffffffffffffffffffffffffffffffffffffff168152602001908152602001600020549050919050565b606060088054610b4d90613226565b80601f0160208091040260200160405190810160405280929190818152602001828054610b7990613226565b8015610bc65780601f10610b9b57610100808354040283529160200191610bc6565b820191906000526020600020905b815481529060010190602001808311610ba957829003601f168201915b5050505050905090565b610bd8611465565b73ffffffffffffffffffffffffffffffffffffffff16610bf6610c58565b73ffffffffffffffffffffffffffffffffffffffff1614610c4c576040517f08c379a0000000000000000000000000000000000000000000000000000000008152600401610c4390612e0f565b60405180910390fd5b610c566000611860565b565b6000600660009054906101000a900473ffffffffffffffffffffffffffffffffffffffff16905090565b610c8a611465565b73ffffffffffffffffffffffffffffffffffffffff16610ca8610c58565b73ffffffffffffffffffffffffffffffffffffffff1614610cfe576040517f08c379a0000000000000000000000000000000000000000000000000000000008152600401610cf590612e0f565b60405180910390fd5b8060099080519060200190610d14929190611f49565b5050565b606060018054610d2790613226565b80601f0160208091040260200160405190810160405280929190818152602001828054610d5390613226565b8015610da05780601f10610d7557610100808354040283529160200191610da0565b820191906000526020600020905b815481529060010190602001808311610d8357829003601f168201915b5050505050905090565b610db2611465565b73ffffffffffffffffffffffffffffffffffffffff168273ffffffffffffffffffffffffffffffffffffffff161415610e20576040517f08c379a0000000000000000000000000000000000000000000000000000000008152600401610e1790612d0f565b60405180910390fd5b8060056000610e2d611465565b73ffffffffffffffffffffffffffffffffffffffff1673ffffffffffffffffffffffffffffffffffffffff16815260200190815260200160002060008473ffffffffffffffffffffffffffffffffffffffff1673ffffffffffffffffffffffffffffffffffffffff16815260200190815260200160002060006101000a81548160ff0219169083151502179055508173ffffffffffffffffffffffffffffffffffffffff16610eda611465565b73ffffffffffffffffffffffffffffffffffffffff167f17307eab39ab6107e8899845ad3d59bd9653f200f220920489ca2b5937696c3183604051610f1f9190612c52565b60405180910390a35050565b610f3c610f36611465565b83611526565b610f7b576040517f08c379a0000000000000000000000000000000000000000000000000000000008152600401610f7290612e6f565b60405180910390fd5b610f8784848484611926565b50505050565b6060600060088054610f9e90613226565b905011610fba5760405180602001604052806000815250610fe6565b6008610fc583611982565b604051602001610fd6929190612bc7565b6040516020818303038152906040525b9050919050565b600a5481565b60606009805461100290613226565b80601f016020809104026020016040519081016040528092919081815260200182805461102e90613226565b801561107b5780601f106110505761010080835404028352916020019161107b565b820191906000526020600020905b81548152906001019060200180831161105e57829003601f168201915b5050505050905090565b6000600560008473ffffffffffffffffffffffffffffffffffffffff1673ffffffffffffffffffffffffffffffffffffffff16815260200190815260200160002060008373ffffffffffffffffffffffffffffffffffffffff1673ffffffffffffffffffffffffffffffffffffffff16815260200190815260200160002060009054906101000a900460ff16905092915050565b611121611465565b73ffffffffffffffffffffffffffffffffffffffff1661113f610c58565b73ffffffffffffffffffffffffffffffffffffffff1614611195576040517f08c379a000000000000000000000000000000000000000000000000000000000815260040161118c90612e0f565b60405180910390fd5b600073ffffffffffffffffffffffffffffffffffffffff168173ffffffffffffffffffffffffffffffffffffffff161415611205576040517f08c379a00000000000000000000000000000000000000000000000000000000081526004016111fc90612caf565b60405180910390fd5b61120e81611860565b50565b606461ffff1681600b60009054906101000a900460ff16611232919061305f565b60ff161115611276576040517f08c379a000000000000000000000000000000000000000000000000000000000815260040161126d90612e8f565b60405180910390fd5b60028160ff1611156112bd576040517f08c379a00000000000000000000000000000000000000000000000000000000081526004016112b490612eaf565b60405180910390fd5b8060ff16600a546112ce91906130c7565b341015611310576040517f08c379a000000000000000000000000000000000000000000000000000000000815260040161130790612daf565b60405180910390fd5b60005b8160ff1681101561138b576113286007611b2f565b60006113346007611b45565b90506001600b60008282829054906101000a900460ff16611355919061305f565b92506101000a81548160ff021916908360ff1602179055506113773382611b53565b50808061138390613258565b915050611313565b5050565b60007f01ffc9a7000000000000000000000000000000000000000000000000000000007bffffffffffffffffffffffffffffffffffffffffffffffffffffffff1916827bffffffffffffffffffffffffffffffffffffffffffffffffffffffff1916149050919050565b60008073ffffffffffffffffffffffffffffffffffffffff166002600084815260200190815260200160002060009054906101000a900473ffffffffffffffffffffffffffffffffffffffff1673ffffffffffffffffffffffffffffffffffffffff1614159050919050565b600033905090565b816004600083815260200190815260200160002060006101000a81548173ffffffffffffffffffffffffffffffffffffffff021916908373ffffffffffffffffffffffffffffffffffffffff160217905550808273ffffffffffffffffffffffffffffffffffffffff166114e0836109cf565b73ffffffffffffffffffffffffffffffffffffffff167f8c5be1e5ebec7d5bd14f71427d1e84f3dd0314c0f7b2291e5b200ac8c7c3b92560405160405180910390a45050565b6000611531826113f9565b611570576040517f08c379a000000000000000000000000000000000000000000000000000000000815260040161156790612d2f565b60405180910390fd5b600061157b836109cf565b90508073ffffffffffffffffffffffffffffffffffffffff168473ffffffffffffffffffffffffffffffffffffffff1614806115ea57508373ffffffffffffffffffffffffffffffffffffffff166115d284610705565b73ffffffffffffffffffffffffffffffffffffffff16145b806115fb57506115fa8185611085565b5b91505092915050565b8273ffffffffffffffffffffffffffffffffffffffff16611624826109cf565b73ffffffffffffffffffffffffffffffffffffffff161461167a576040517f08c379a000000000000000000000000000000000000000000000000000000000815260040161167190612e2f565b60405180910390fd5b600073ffffffffffffffffffffffffffffffffffffffff168273ffffffffffffffffffffffffffffffffffffffff1614156116ea576040517f08c379a00000000000000000000000000000000000000000000000000000000081526004016116e190612cef565b60405180910390fd5b6116f5838383611b71565b61170060008261146d565b6001600360008573ffffffffffffffffffffffffffffffffffffffff1673ffffffffffffffffffffffffffffffffffffffff16815260200190815260200160002060008282546117509190613121565b925050819055506001600360008473ffffffffffffffffffffffffffffffffffffffff1673ffffffffffffffffffffffffffffffffffffffff16815260200190815260200160002060008282546117a79190613009565b92505081905550816002600083815260200190815260200160002060006101000a81548173ffffffffffffffffffffffffffffffffffffffff021916908373ffffffffffffffffffffffffffffffffffffffff160217905550808273ffffffffffffffffffffffffffffffffffffffff168473ffffffffffffffffffffffffffffffffffffffff167fddf252ad1be2c89b69c2b068fc378daa952ba7f163c4a11628f55a4df523b3ef60405160405180910390a4505050565b6000600660009054906101000a900473ffffffffffffffffffffffffffffffffffffffff16905081600660006101000a81548173ffffffffffffffffffffffffffffffffffffffff021916908373ffffffffffffffffffffffffffffffffffffffff1602179055508173ffffffffffffffffffffffffffffffffffffffff168173ffffffffffffffffffffffffffffffffffffffff167f8be0079c531659141344cd1fd0a4f28419497f9722a3daafe3b4186f6b6457e060405160405180910390a35050565b611931848484611604565b61193d84848484611b76565b61197c576040517f08c379a000000000000000000000000000000000000000000000000000000000815260040161197390612c8f565b60405180910390fd5b50505050565b606060008214156119ca576040518060400160405280600181526020017f30000000000000000000000000000000000000000000000000000000000000008152509050611b2a565b600082905060005b600082146119fc5780806119e590613258565b915050600a826119f59190613096565b91506119d2565b60008167ffffffffffffffff811115611a3e577f4e487b7100000000000000000000000000000000000000000000000000000000600052604160045260246000fd5b6040519080825280601f01601f191660200182016040528015611a705781602001600182028036833780820191505090505b5090505b60008514611b2357600182611a899190613121565b9150600a85611a9891906132a1565b6030611aa49190613009565b60f81b818381518110611ae0577f4e487b7100000000000000000000000000000000000000000000000000000000600052603260045260246000fd5b60200101907effffffffffffffffffffffffffffffffffffffffffffffffffffffffffffff1916908160001a905350600a85611b1c9190613096565b9450611a74565b8093505050505b919050565b6001816000016000828254019250508190555050565b600081600001549050919050565b611b6d828260405180602001604052806000815250611d0d565b5050565b505050565b6000611b978473ffffffffffffffffffffffffffffffffffffffff16611d68565b15611d00578373ffffffffffffffffffffffffffffffffffffffff1663150b7a02611bc0611465565b8786866040518563ffffffff1660e01b8152600401611be29493929190612c06565b602060405180830381600087803b158015611bfc57600080fd5b505af1925050508015611c2d57506040513d601f19601f82011682018060405250810190611c2a919061230a565b60015b611cb0573d8060008114611c5d576040519150601f19603f3d011682016040523d82523d6000602084013e611c62565b606091505b50600081511415611ca8576040517f08c379a0000000000000000000000000000000000000000000000000000000008152600401611c9f90612c8f565b60405180910390fd5b805181602001fd5b63150b7a0260e01b7bffffffffffffffffffffffffffffffffffffffffffffffffffffffff1916817bffffffffffffffffffffffffffffffffffffffffffffffffffffffff191614915050611d05565b600190505b949350505050565b611d178383611d7b565b611d246000848484611b76565b611d63576040517f08c379a0000000000000000000000000000000000000000000000000000000008152600401611d5a90612c8f565b60405180910390fd5b505050565b600080823b905060008111915050919050565b600073ffffffffffffffffffffffffffffffffffffffff168273ffffffffffffffffffffffffffffffffffffffff161415611deb576040517f08c379a0000000000000000000000000000000000000000000000000000000008152600401611de290612dcf565b60405180910390fd5b611df4816113f9565b15611e34576040517f08c379a0000000000000000000000000000000000000000000000000000000008152600401611e2b90612ccf565b60405180910390fd5b611e4060008383611b71565b6001600360008473ffffffffffffffffffffffffffffffffffffffff1673ffffffffffffffffffffffffffffffffffffffff1681526020019081526020016000206000828254611e909190613009565b92505081905550816002600083815260200190815260200160002060006101000a81548173ffffffffffffffffffffffffffffffffffffffff021916908373ffffffffffffffffffffffffffffffffffffffff160217905550808273ffffffffffffffffffffffffffffffffffffffff16600073ffffffffffffffffffffffffffffffffffffffff167fddf252ad1be2c89b69c2b068fc378daa952ba7f163c4a11628f55a4df523b3ef60405160405180910390a45050565b828054611f5590613226565b90600052602060002090601f016020900481019282611f775760008555611fbe565b82601f10611f9057805160ff1916838001178555611fbe565b82800160010185558215611fbe579182015b82811115611fbd578251825591602001919060010190611fa2565b5b509050611fcb9190611fcf565b5090565b5b80821115611fe8576000816000905550600101611fd0565b5090565b6000611fff611ffa84612f51565b612f20565b90508281526020810184848401111561201757600080fd5b6120228482856131e4565b509392505050565b600061203d61203884612f81565b612f20565b90508281526020810184848401111561205557600080fd5b6120608482856131e4565b509392505050565b6000813590506120778161339f565b92915050565b60008135905061208c816133b6565b92915050565b6000813590506120a1816133cd565b92915050565b6000815190506120b6816133cd565b92915050565b600082601f8301126120cd57600080fd5b81356120dd848260208601611fec565b91505092915050565b600082601f8301126120f757600080fd5b813561210784826020860161202a565b91505092915050565b60008135905061211f816133e4565b92915050565b600081359050612134816133fb565b92915050565b60006020828403121561214c57600080fd5b600061215a84828501612068565b91505092915050565b6000806040838503121561217657600080fd5b600061218485828601612068565b925050602061219585828601612068565b9150509250929050565b6000806000606084860312156121b457600080fd5b60006121c286828701612068565b93505060206121d386828701612068565b92505060406121e486828701612110565b9150509250925092565b6000806000806080858703121561220457600080fd5b600061221287828801612068565b945050602061222387828801612068565b935050604061223487828801612110565b925050606085013567ffffffffffffffff81111561225157600080fd5b61225d878288016120bc565b91505092959194509250565b6000806040838503121561227c57600080fd5b600061228a85828601612068565b925050602061229b8582860161207d565b9150509250929050565b600080604083850312156122b857600080fd5b60006122c685828601612068565b92505060206122d785828601612110565b9150509250929050565b6000602082840312156122f357600080fd5b600061230184828501612092565b91505092915050565b60006020828403121561231c57600080fd5b600061232a848285016120a7565b91505092915050565b60006020828403121561234557600080fd5b600082013567ffffffffffffffff81111561235f57600080fd5b61236b848285016120e6565b91505092915050565b60006020828403121561238657600080fd5b600061239484828501612110565b91505092915050565b6000602082840312156123af57600080fd5b60006123bd84828501612125565b91505092915050565b6123cf81613155565b82525050565b6123de81613167565b82525050565b60006123ef82612fc6565b6123f98185612fdc565b93506124098185602086016131f3565b6124128161338e565b840191505092915050565b600061242882612fd1565b6124328185612fed565b93506124428185602086016131f3565b61244b8161338e565b840191505092915050565b600061246182612fd1565b61246b8185612ffe565b935061247b8185602086016131f3565b80840191505092915050565b6000815461249481613226565b61249e8186612ffe565b945060018216600081146124b957600181146124ca576124fd565b60ff198316865281860193506124fd565b6124d385612fb1565b60005b838110156124f5578154818901526001820191506020810190506124d6565b838801955050505b50505092915050565b6000612513603283612fed565b91507f4552433732313a207472616e7366657220746f206e6f6e20455243373231526560008301527f63656976657220696d706c656d656e74657200000000000000000000000000006020830152604082019050919050565b6000612579602683612fed565b91507f4f776e61626c653a206e6577206f776e657220697320746865207a65726f206160008301527f64647265737300000000000000000000000000000000000000000000000000006020830152604082019050919050565b60006125df601c83612fed565b91507f4552433732313a20746f6b656e20616c7265616479206d696e746564000000006000830152602082019050919050565b600061261f602483612fed565b91507f4552433732313a207472616e7366657220746f20746865207a65726f2061646460008301527f72657373000000000000000000000000000000000000000000000000000000006020830152604082019050919050565b6000612685601983612fed565b91507f4552433732313a20617070726f766520746f2063616c6c6572000000000000006000830152602082019050919050565b60006126c5602c83612fed565b91507f4552433732313a206f70657261746f7220717565727920666f72206e6f6e657860008301527f697374656e7420746f6b656e00000000000000000000000000000000000000006020830152604082019050919050565b600061272b603883612fed565b91507f4552433732313a20617070726f76652063616c6c6572206973206e6f74206f7760008301527f6e6572206e6f7220617070726f76656420666f7220616c6c00000000000000006020830152604082019050919050565b6000612791602a83612fed565b91507f4552433732313a2062616c616e636520717565727920666f7220746865207a6560008301527f726f2061646472657373000000000000000000000000000000000000000000006020830152604082019050919050565b60006127f7602983612fed565b91507f4552433732313a206f776e657220717565727920666f72206e6f6e657869737460008301527f656e7420746f6b656e00000000000000000000000000000000000000000000006020830152604082019050919050565b600061285d602383612fed565b91507f45746865722076616c75652073656e742069732062656c6f772074686520707260008301527f69636500000000000000000000000000000000000000000000000000000000006020830152604082019050919050565b60006128c3602083612fed565b91507f4552433732313a206d696e7420746f20746865207a65726f20616464726573736000830152602082019050919050565b6000612903602c83612fed565b91507f4552433732313a20617070726f76656420717565727920666f72206e6f6e657860008301527f697374656e7420746f6b656e00000000000000000000000000000000000000006020830152604082019050919050565b6000612969602083612fed565b91507f4f776e61626c653a2063616c6c6572206973206e6f7420746865206f776e65726000830152602082019050919050565b60006129a9602983612fed565b91507f4552433732313a207472616e73666572206f6620746f6b656e2074686174206960008301527f73206e6f74206f776e00000000000000000000000000000000000000000000006020830152604082019050919050565b6000612a0f602183612fed565b91507f4552433732313a20617070726f76616c20746f2063757272656e74206f776e6560008301527f72000000000000000000000000000000000000000000000000000000000000006020830152604082019050919050565b6000612a75603183612fed565b91507f4552433732313a207472616e736665722063616c6c6572206973206e6f74206f60008301527f776e6572206e6f7220617070726f7665640000000000000000000000000000006020830152604082019050919050565b6000612adb602883612fed565b91507f4d696e74696e6720776f756c6420657863656564206d617820616c6c6f77656460008301527f204e696e6a61732e0000000000000000000000000000000000000000000000006020830152604082019050919050565b6000612b41603183612fed565b91507f596f752063616e206d696e74206174206d6f73742032206e696e6a617320696e60008301527f206f6e65207472616e73616374696f6e2e0000000000000000000000000000006020830152604082019050919050565b612ba38161319f565b82525050565b612bb2816131cd565b82525050565b612bc1816131d7565b82525050565b6000612bd38285612487565b9150612bdf8284612456565b91508190509392505050565b6000602082019050612c0060008301846123c6565b92915050565b6000608082019050612c1b60008301876123c6565b612c2860208301866123c6565b612c356040830185612ba9565b8181036060830152612c4781846123e4565b905095945050505050565b6000602082019050612c6760008301846123d5565b92915050565b60006020820190508181036000830152612c87818461241d565b905092915050565b60006020820190508181036000830152612ca881612506565b9050919050565b60006020820190508181036000830152612cc88161256c565b9050919050565b60006020820190508181036000830152612ce8816125d2565b9050919050565b60006020820190508181036000830152612d0881612612565b9050919050565b60006020820190508181036000830152612d2881612678565b9050919050565b60006020820190508181036000830152612d48816126b8565b9050919050565b60006020820190508181036000830152612d688161271e565b9050919050565b60006020820190508181036000830152612d8881612784565b9050919050565b60006020820190508181036000830152612da8816127ea565b9050919050565b60006020820190508181036000830152612dc881612850565b9050919050565b60006020820190508181036000830152612de8816128b6565b9050919050565b60006020820190508181036000830152612e08816128f6565b9050919050565b60006020820190508181036000830152612e288161295c565b9050919050565b60006020820190508181036000830152612e488161299c565b9050919050565b60006020820190508181036000830152612e6881612a02565b9050919050565b60006020820190508181036000830152612e8881612a68565b9050919050565b60006020820190508181036000830152612ea881612ace565b9050919050565b60006020820190508181036000830152612ec881612b34565b9050919050565b6000602082019050612ee46000830184612b9a565b92915050565b6000602082019050612eff6000830184612ba9565b92915050565b6000602082019050612f1a6000830184612bb8565b92915050565b6000604051905081810181811067ffffffffffffffff82111715612f4757612f4661335f565b5b8060405250919050565b600067ffffffffffffffff821115612f6c57612f6b61335f565b5b601f19601f8301169050602081019050919050565b600067ffffffffffffffff821115612f9c57612f9b61335f565b5b601f19601f8301169050602081019050919050565b60008190508160005260206000209050919050565b600081519050919050565b600081519050919050565b600082825260208201905092915050565b600082825260208201905092915050565b600081905092915050565b6000613014826131cd565b915061301f836131cd565b9250827fffffffffffffffffffffffffffffffffffffffffffffffffffffffffffffffff03821115613054576130536132d2565b5b828201905092915050565b600061306a826131d7565b9150613075836131d7565b92508260ff0382111561308b5761308a6132d2565b5b828201905092915050565b60006130a1826131cd565b91506130ac836131cd565b9250826130bc576130bb613301565b5b828204905092915050565b60006130d2826131cd565b91506130dd836131cd565b9250817fffffffffffffffffffffffffffffffffffffffffffffffffffffffffffffffff0483118215151615613116576131156132d2565b5b828202905092915050565b600061312c826131cd565b9150613137836131cd565b92508282101561314a576131496132d2565b5b828203905092915050565b6000613160826131ad565b9050919050565b60008115159050919050565b60007fffffffff0000000000000000000000000000000000000000000000000000000082169050919050565b600061ffff82169050919050565b600073ffffffffffffffffffffffffffffffffffffffff82169050919050565b6000819050919050565b600060ff82169050919050565b82818337600083830152505050565b60005b838110156132115780820151818401526020810190506131f6565b83811115613220576000848401525b50505050565b6000600282049050600182168061323e57607f821691505b6020821081141561325257613251613330565b5b50919050565b6000613263826131cd565b91507fffffffffffffffffffffffffffffffffffffffffffffffffffffffffffffffff821415613296576132956132d2565b5b600182019050919050565b60006132ac826131cd565b91506132b7836131cd565b9250826132c7576132c6613301565b5b828206905092915050565b7f4e487b7100000000000000000000000000000000000000000000000000000000600052601160045260246000fd5b7f4e487b7100000000000000000000000000000000000000000000000000000000600052601260045260246000fd5b7f4e487b7100000000000000000000000000000000000000000000000000000000600052602260045260246000fd5b7f4e487b7100000000000000000000000000000000000000000000000000000000600052604160045260246000fd5b6000601f19601f8301169050919050565b6133a881613155565b81146133b357600080fd5b50565b6133bf81613167565b81146133ca57600080fd5b50565b6133d681613173565b81146133e157600080fd5b50565b6133ed816131cd565b81146133f857600080fd5b50565b613404816131d7565b811461340f57600080fd5b5056fea264697066735822122061cbea377e76477083ad4d9d377ea9556f79b1c81d811d1657b74ce4da0e9c8464736f6c63430008000033",
  "linkReferences": {},
  "deployedLinkReferences": {}
}