{
  "_format": "hh-sol-artifact-1",
  "contractName": "ChibiShinobis",
  "sourceName": "contracts/ChibiShinobis.sol",
  "abi": [
    {
      "inputs": [
        {
          "internalType": "string",
          "name": "baseURI",
          "type": "string"
        },
        {
          "internalType": "string",
          "name": "contractDefaultURI",
          "type": "string"
        }
      ],
      "stateMutability": "nonpayable",
      "type": "constructor"
    },
    {
      "anonymous": false,
      "inputs": [
        {
          "indexed": true,
          "internalType": "address",
          "name": "owner",
          "type": "address"
        },
        {
          "indexed": true,
          "internalType": "address",
          "name": "approved",
          "type": "address"
        },
        {
          "indexed": true,
          "internalType": "uint256",
          "name": "tokenId",
          "type": "uint256"
        }
      ],
      "name": "Approval",
      "type": "event"
    },
    {
      "anonymous": false,
      "inputs": [
        {
          "indexed": true,
          "internalType": "address",
          "name": "owner",
          "type": "address"
        },
        {
          "indexed": true,
          "internalType": "address",
          "name": "operator",
          "type": "address"
        },
        {
          "indexed": false,
          "internalType": "bool",
          "name": "approved",
          "type": "bool"
        }
      ],
      "name": "ApprovalForAll",
      "type": "event"
    },
    {
      "anonymous": false,
      "inputs": [
        {
          "indexed": true,
          "internalType": "address",
          "name": "previousOwner",
          "type": "address"
        },
        {
          "indexed": true,
          "internalType": "address",
          "name": "newOwner",
          "type": "address"
        }
      ],
      "name": "OwnershipTransferred",
      "type": "event"
    },
    {
      "anonymous": false,
      "inputs": [
        {
          "indexed": true,
          "internalType": "address",
          "name": "from",
          "type": "address"
        },
        {
          "indexed": true,
          "internalType": "address",
          "name": "to",
          "type": "address"
        },
        {
          "indexed": true,
          "internalType": "uint256",
          "name": "tokenId",
          "type": "uint256"
        }
      ],
      "name": "Transfer",
      "type": "event"
    },
    {
      "inputs": [],
      "name": "_paused",
      "outputs": [
        {
          "internalType": "bool",
          "name": "",
          "type": "bool"
        }
      ],
      "stateMutability": "view",
      "type": "function"
    },
    {
      "inputs": [
        {
          "internalType": "address",
          "name": "to",
          "type": "address"
        },
        {
          "internalType": "uint256",
          "name": "tokenId",
          "type": "uint256"
        }
      ],
      "name": "approve",
      "outputs": [],
      "stateMutability": "nonpayable",
      "type": "function"
    },
    {
      "inputs": [
        {
          "internalType": "address",
          "name": "owner",
          "type": "address"
        }
      ],
      "name": "balanceOf",
      "outputs": [
        {
          "internalType": "uint256",
          "name": "",
          "type": "uint256"
        }
      ],
      "stateMutability": "view",
      "type": "function"
    },
    {
      "inputs": [
        {
          "internalType": "uint256",
          "name": "num",
          "type": "uint256"
        }
      ],
      "name": "clone",
      "outputs": [],
      "stateMutability": "payable",
      "type": "function"
    },
    {
      "inputs": [],
      "name": "contractURI",
      "outputs": [
        {
          "internalType": "string",
          "name": "",
          "type": "string"
        }
      ],
      "stateMutability": "view",
      "type": "function"
    },
    {
      "inputs": [
        {
          "internalType": "uint256",
          "name": "tokenId",
          "type": "uint256"
        }
      ],
      "name": "getApproved",
      "outputs": [
        {
          "internalType": "address",
          "name": "",
          "type": "address"
        }
      ],
      "stateMutability": "view",
      "type": "function"
    },
    {
      "inputs": [],
      "name": "getPrice",
      "outputs": [
        {
          "internalType": "uint256",
          "name": "",
          "type": "uint256"
        }
      ],
      "stateMutability": "view",
      "type": "function"
    },
    {
      "inputs": [
        {
          "internalType": "address",
          "name": "_to",
          "type": "address"
        },
        {
          "internalType": "uint256",
          "name": "_amount",
          "type": "uint256"
        }
      ],
      "name": "giveAway",
      "outputs": [],
      "stateMutability": "nonpayable",
      "type": "function"
    },
    {
      "inputs": [
        {
          "internalType": "address",
          "name": "owner",
          "type": "address"
        },
        {
          "internalType": "address",
          "name": "operator",
          "type": "address"
        }
      ],
      "name": "isApprovedForAll",
      "outputs": [
        {
          "internalType": "bool",
          "name": "",
          "type": "bool"
        }
      ],
      "stateMutability": "view",
      "type": "function"
    },
    {
      "inputs": [],
      "name": "name",
      "outputs": [
        {
          "internalType": "string",
          "name": "",
          "type": "string"
        }
      ],
      "stateMutability": "view",
      "type": "function"
    },
    {
      "inputs": [],
      "name": "owner",
      "outputs": [
        {
          "internalType": "address",
          "name": "",
          "type": "address"
        }
      ],
      "stateMutability": "view",
      "type": "function"
    },
    {
      "inputs": [
        {
          "internalType": "uint256",
          "name": "tokenId",
          "type": "uint256"
        }
      ],
      "name": "ownerOf",
      "outputs": [
        {
          "internalType": "address",
          "name": "",
          "type": "address"
        }
      ],
      "stateMutability": "view",
      "type": "function"
    },
    {
      "inputs": [
        {
          "internalType": "bool",
          "name": "val",
          "type": "bool"
        }
      ],
      "name": "pause",
      "outputs": [],
      "stateMutability": "nonpayable",
      "type": "function"
    },
    {
      "inputs": [],
      "name": "renounceOwnership",
      "outputs": [],
      "stateMutability": "nonpayable",
      "type": "function"
    },
    {
      "inputs": [
        {
          "internalType": "address",
          "name": "from",
          "type": "address"
        },
        {
          "internalType": "address",
          "name": "to",
          "type": "address"
        },
        {
          "internalType": "uint256",
          "name": "tokenId",
          "type": "uint256"
        }
      ],
      "name": "safeTransferFrom",
      "outputs": [],
      "stateMutability": "nonpayable",
      "type": "function"
    },
    {
      "inputs": [
        {
          "internalType": "address",
          "name": "from",
          "type": "address"
        },
        {
          "internalType": "address",
          "name": "to",
          "type": "address"
        },
        {
          "internalType": "uint256",
          "name": "tokenId",
          "type": "uint256"
        },
        {
          "internalType": "bytes",
          "name": "_data",
          "type": "bytes"
        }
      ],
      "name": "safeTransferFrom",
      "outputs": [],
      "stateMutability": "nonpayable",
      "type": "function"
    },
    {
      "inputs": [
        {
          "internalType": "address",
          "name": "operator",
          "type": "address"
        },
        {
          "internalType": "bool",
          "name": "approved",
          "type": "bool"
        }
      ],
      "name": "setApprovalForAll",
      "outputs": [],
      "stateMutability": "nonpayable",
      "type": "function"
    },
    {
      "inputs": [
        {
          "internalType": "string",
          "name": "baseURI",
          "type": "string"
        }
      ],
      "name": "setBaseURI",
      "outputs": [],
      "stateMutability": "nonpayable",
      "type": "function"
    },
    {
      "inputs": [
        {
          "internalType": "string",
          "name": "newContractURI",
          "type": "string"
        }
      ],
      "name": "setContractURI",
      "outputs": [],
      "stateMutability": "nonpayable",
      "type": "function"
    },
    {
      "inputs": [
        {
          "internalType": "uint256",
          "name": "_newPrice",
          "type": "uint256"
        }
      ],
      "name": "setPrice",
      "outputs": [],
      "stateMutability": "nonpayable",
      "type": "function"
    },
    {
      "inputs": [
        {
          "internalType": "bytes4",
          "name": "interfaceId",
          "type": "bytes4"
        }
      ],
      "name": "supportsInterface",
      "outputs": [
        {
          "internalType": "bool",
          "name": "",
          "type": "bool"
        }
      ],
      "stateMutability": "view",
      "type": "function"
    },
    {
      "inputs": [],
      "name": "symbol",
      "outputs": [
        {
          "internalType": "string",
          "name": "",
          "type": "string"
        }
      ],
      "stateMutability": "view",
      "type": "function"
    },
    {
      "inputs": [
        {
          "internalType": "uint256",
          "name": "index",
          "type": "uint256"
        }
      ],
      "name": "tokenByIndex",
      "outputs": [
        {
          "internalType": "uint256",
          "name": "",
          "type": "uint256"
        }
      ],
      "stateMutability": "view",
      "type": "function"
    },
    {
      "inputs": [
        {
          "internalType": "address",
          "name": "owner",
          "type": "address"
        },
        {
          "internalType": "uint256",
          "name": "index",
          "type": "uint256"
        }
      ],
      "name": "tokenOfOwnerByIndex",
      "outputs": [
        {
          "internalType": "uint256",
          "name": "",
          "type": "uint256"
        }
      ],
      "stateMutability": "view",
      "type": "function"
    },
    {
      "inputs": [
        {
          "internalType": "uint256",
          "name": "tokenId",
          "type": "uint256"
        }
      ],
      "name": "tokenURI",
      "outputs": [
        {
          "internalType": "string",
          "name": "",
          "type": "string"
        }
      ],
      "stateMutability": "view",
      "type": "function"
    },
    {
      "inputs": [],
      "name": "totalSupply",
      "outputs": [
        {
          "internalType": "uint256",
          "name": "",
          "type": "uint256"
        }
      ],
      "stateMutability": "view",
      "type": "function"
    },
    {
      "inputs": [
        {
          "internalType": "address",
          "name": "from",
          "type": "address"
        },
        {
          "internalType": "address",
          "name": "to",
          "type": "address"
        },
        {
          "internalType": "uint256",
          "name": "tokenId",
          "type": "uint256"
        }
      ],
      "name": "transferFrom",
      "outputs": [],
      "stateMutability": "nonpayable",
      "type": "function"
    },
    {
      "inputs": [
        {
          "internalType": "address",
          "name": "newOwner",
          "type": "address"
        }
      ],
      "name": "transferOwnership",
      "outputs": [],
      "stateMutability": "nonpayable",
      "type": "function"
    },
    {
      "inputs": [
        {
          "internalType": "address",
          "name": "_owner",
          "type": "address"
        }
      ],
      "name": "walletOfOwner",
      "outputs": [
        {
          "internalType": "uint256[]",
          "name": "",
          "type": "uint256[]"
        }
      ],
      "stateMutability": "view",
      "type": "function"
    },
    {
      "inputs": [],
      "name": "withdrawAll",
      "outputs": [],
      "stateMutability": "payable",
      "type": "function"
    }
  ],
  "bytecode": "0x60806040526064600d55666a94d74f430000600e556001600f60006101000a81548160ff021916908315150217905550737e67af7ff72cb87b7b0100ca8128f4673d185234600f60016101000a81548173ffffffffffffffffffffffffffffffffffffffff021916908373ffffffffffffffffffffffffffffffffffffffff160217905550737e67af7ff72cb87b7b0100ca8128f4673d185234601060006101000a81548173ffffffffffffffffffffffffffffffffffffffff021916908373ffffffffffffffffffffffffffffffffffffffff160217905550737e67af7ff72cb87b7b0100ca8128f4673d185234601160006101000a81548173ffffffffffffffffffffffffffffffffffffffff021916908373ffffffffffffffffffffffffffffffffffffffff160217905550737e67af7ff72cb87b7b0100ca8128f4673d185234601260006101000a81548173ffffffffffffffffffffffffffffffffffffffff021916908373ffffffffffffffffffffffffffffffffffffffff1602179055503480156200019057600080fd5b5060405162005ac438038062005ac48339818101604052810190620001b691906200117b565b6040518060400160405280600e81526020017f4368696269205368696e6f6269730000000000000000000000000000000000008152506040518060400160405280600681526020017f434849424953000000000000000000000000000000000000000000000000000081525081600090805190602001906200023a92919062001016565b5080600190805190602001906200025392919062001016565b505050620002766200026a6200037460201b60201c565b6200037c60201b60201c565b62000287826200044260201b60201c565b6200029881620004ed60201b60201c565b620002cd600f60019054906101000a900473ffffffffffffffffffffffffffffffffffffffff1660006200059860201b60201c565b62000302601060009054906101000a900473ffffffffffffffffffffffffffffffffffffffff1660016200059860201b60201c565b62000337601160009054906101000a900473ffffffffffffffffffffffffffffffffffffffff1660026200059860201b60201c565b6200036c601260009054906101000a900473ffffffffffffffffffffffffffffffffffffffff1660036200059860201b60201c565b50506200179f565b600033905090565b6000600a60009054906101000a900473ffffffffffffffffffffffffffffffffffffffff16905081600a60006101000a81548173ffffffffffffffffffffffffffffffffffffffff021916908373ffffffffffffffffffffffffffffffffffffffff1602179055508173ffffffffffffffffffffffffffffffffffffffff168173ffffffffffffffffffffffffffffffffffffffff167f8be0079c531659141344cd1fd0a4f28419497f9722a3daafe3b4186f6b6457e060405160405180910390a35050565b620004526200037460201b60201c565b73ffffffffffffffffffffffffffffffffffffffff1662000478620005be60201b60201c565b73ffffffffffffffffffffffffffffffffffffffff1614620004d1576040517f08c379a0000000000000000000000000000000000000000000000000000000008152600401620004c890620014c3565b60405180910390fd5b80600b9080519060200190620004e992919062001016565b5050565b620004fd6200037460201b60201c565b73ffffffffffffffffffffffffffffffffffffffff1662000523620005be60201b60201c565b73ffffffffffffffffffffffffffffffffffffffff16146200057c576040517f08c379a00000000000000000000000000000000000000000000000000000000081526004016200057390620014c3565b60405180910390fd5b80600c90805190602001906200059492919062001016565b5050565b620005ba828260405180602001604052806000815250620005e860201b60201c565b5050565b6000600a60009054906101000a900473ffffffffffffffffffffffffffffffffffffffff16905090565b620005fa83836200065660201b60201c565b6200060f60008484846200083c60201b60201c565b62000651576040517f08c379a000000000000000000000000000000000000000000000000000000000815260040162000648906200143b565b60405180910390fd5b505050565b600073ffffffffffffffffffffffffffffffffffffffff168273ffffffffffffffffffffffffffffffffffffffff161415620006c9576040517f08c379a0000000000000000000000000000000000000000000000000000000008152600401620006c090620014a1565b60405180910390fd5b620006da81620009f660201b60201c565b156200071d576040517f08c379a000000000000000000000000000000000000000000000000000000000815260040162000714906200145d565b60405180910390fd5b620007316000838362000a6260201b60201c565b6001600360008473ffffffffffffffffffffffffffffffffffffffff1673ffffffffffffffffffffffffffffffffffffffff168152602001908152602001600020600082825462000783919062001579565b92505081905550816002600083815260200190815260200160002060006101000a81548173ffffffffffffffffffffffffffffffffffffffff021916908373ffffffffffffffffffffffffffffffffffffffff160217905550808273ffffffffffffffffffffffffffffffffffffffff16600073ffffffffffffffffffffffffffffffffffffffff167fddf252ad1be2c89b69c2b068fc378daa952ba7f163c4a11628f55a4df523b3ef60405160405180910390a45050565b60006200086a8473ffffffffffffffffffffffffffffffffffffffff1662000ba960201b62001b001760201c565b15620009e9578373ffffffffffffffffffffffffffffffffffffffff1663150b7a026200089c6200037460201b60201c565b8786866040518563ffffffff1660e01b8152600401620008c09493929190620013e7565b602060405180830381600087803b158015620008db57600080fd5b505af19250505080156200090f57506040513d601f19601f820116820180604052508101906200090c91906200114f565b60015b62000998573d806000811462000942576040519150601f19603f3d011682016040523d82523d6000602084013e62000947565b606091505b5060008151141562000990576040517f08c379a000000000000000000000000000000000000000000000000000000000815260040162000987906200143b565b60405180910390fd5b805181602001fd5b63150b7a0260e01b7bffffffffffffffffffffffffffffffffffffffffffffffffffffffff1916817bffffffffffffffffffffffffffffffffffffffffffffffffffffffff191614915050620009ee565b600190505b949350505050565b60008073ffffffffffffffffffffffffffffffffffffffff166002600084815260200190815260200160002060009054906101000a900473ffffffffffffffffffffffffffffffffffffffff1673ffffffffffffffffffffffffffffffffffffffff1614159050919050565b62000a7a83838362000bbc60201b62001b131760201c565b600073ffffffffffffffffffffffffffffffffffffffff168373ffffffffffffffffffffffffffffffffffffffff16141562000ac75762000ac18162000bc160201b60201c565b62000b0f565b8173ffffffffffffffffffffffffffffffffffffffff168373ffffffffffffffffffffffffffffffffffffffff161462000b0e5762000b0d838262000c0a60201b60201c565b5b5b600073ffffffffffffffffffffffffffffffffffffffff168273ffffffffffffffffffffffffffffffffffffffff16141562000b5c5762000b568162000d8760201b60201c565b62000ba4565b8273ffffffffffffffffffffffffffffffffffffffff168273ffffffffffffffffffffffffffffffffffffffff161462000ba35762000ba2828262000ecf60201b60201c565b5b5b505050565b600080823b905060008111915050919050565b505050565b6008805490506009600083815260200190815260200160002081905550600881908060018154018082558091505060019003906000526020600020016000909190919091505550565b6000600162000c248462000f5b60201b62000e841760201c565b62000c309190620015d6565b905060006007600084815260200190815260200160002054905081811462000d16576000600660008673ffffffffffffffffffffffffffffffffffffffff1673ffffffffffffffffffffffffffffffffffffffff168152602001908152602001600020600084815260200190815260200160002054905080600660008773ffffffffffffffffffffffffffffffffffffffff1673ffffffffffffffffffffffffffffffffffffffff168152602001908152602001600020600084815260200190815260200160002081905550816007600083815260200190815260200160002081905550505b6007600084815260200190815260200160002060009055600660008573ffffffffffffffffffffffffffffffffffffffff1673ffffffffffffffffffffffffffffffffffffffff16815260200190815260200160002060008381526020019081526020016000206000905550505050565b6000600160088054905062000d9d9190620015d6565b905060006009600084815260200190815260200160002054905060006008838154811062000df4577f4e487b7100000000000000000000000000000000000000000000000000000000600052603260045260246000fd5b90600052602060002001549050806008838154811062000e3d577f4e487b7100000000000000000000000000000000000000000000000000000000600052603260045260246000fd5b90600052602060002001819055508160096000838152602001908152602001600020819055506009600085815260200190815260200160002060009055600880548062000eb3577f4e487b7100000000000000000000000000000000000000000000000000000000600052603160045260246000fd5b6001900381819060005260206000200160009055905550505050565b600062000ee78362000f5b60201b62000e841760201c565b905081600660008573ffffffffffffffffffffffffffffffffffffffff1673ffffffffffffffffffffffffffffffffffffffff168152602001908152602001600020600083815260200190815260200160002081905550806007600084815260200190815260200160002081905550505050565b60008073ffffffffffffffffffffffffffffffffffffffff168273ffffffffffffffffffffffffffffffffffffffff16141562000fcf576040517f08c379a000000000000000000000000000000000000000000000000000000000815260040162000fc6906200147f565b60405180910390fd5b600360008373ffffffffffffffffffffffffffffffffffffffff1673ffffffffffffffffffffffffffffffffffffffff168152602001908152602001600020549050919050565b8280546200102490620016b1565b90600052602060002090601f01602090048101928262001048576000855562001094565b82601f106200106357805160ff191683800117855562001094565b8280016001018555821562001094579182015b828111156200109357825182559160200191906001019062001076565b5b509050620010a39190620010a7565b5090565b5b80821115620010c2576000816000905550600101620010a8565b5090565b6000620010dd620010d78462001519565b620014e5565b905082815260208101848484011115620010f657600080fd5b620011038482856200167b565b509392505050565b6000815190506200111c8162001785565b92915050565b600082601f8301126200113457600080fd5b815162001146848260208601620010c6565b91505092915050565b6000602082840312156200116257600080fd5b600062001172848285016200110b565b91505092915050565b600080604083850312156200118f57600080fd5b600083015167ffffffffffffffff811115620011aa57600080fd5b620011b88582860162001122565b925050602083015167ffffffffffffffff811115620011d657600080fd5b620011e48582860162001122565b9150509250929050565b620011f98162001611565b82525050565b60006200120c826200154c565b62001218818562001557565b93506200122a8185602086016200167b565b620012358162001774565b840191505092915050565b60006200124f60328362001568565b91507f4552433732313a207472616e7366657220746f206e6f6e20455243373231526560008301527f63656976657220696d706c656d656e74657200000000000000000000000000006020830152604082019050919050565b6000620012b7601c8362001568565b91507f4552433732313a20746f6b656e20616c7265616479206d696e746564000000006000830152602082019050919050565b6000620012f9602a8362001568565b91507f4552433732313a2062616c616e636520717565727920666f7220746865207a6560008301527f726f2061646472657373000000000000000000000000000000000000000000006020830152604082019050919050565b60006200136160208362001568565b91507f4552433732313a206d696e7420746f20746865207a65726f20616464726573736000830152602082019050919050565b6000620013a360208362001568565b91507f4f776e61626c653a2063616c6c6572206973206e6f7420746865206f776e65726000830152602082019050919050565b620013e18162001671565b82525050565b6000608082019050620013fe6000830187620011ee565b6200140d6020830186620011ee565b6200141c6040830185620013d6565b8181036060830152620014308184620011ff565b905095945050505050565b60006020820190508181036000830152620014568162001240565b9050919050565b600060208201905081810360008301526200147881620012a8565b9050919050565b600060208201905081810360008301526200149a81620012ea565b9050919050565b60006020820190508181036000830152620014bc8162001352565b9050919050565b60006020820190508181036000830152620014de8162001394565b9050919050565b6000604051905081810181811067ffffffffffffffff821117156200150f576200150e62001745565b5b8060405250919050565b600067ffffffffffffffff82111562001537576200153662001745565b5b601f19601f8301169050602081019050919050565b600081519050919050565b600082825260208201905092915050565b600082825260208201905092915050565b6000620015868262001671565b9150620015938362001671565b9250827fffffffffffffffffffffffffffffffffffffffffffffffffffffffffffffffff03821115620015cb57620015ca620016e7565b5b828201905092915050565b6000620015e38262001671565b9150620015f08362001671565b925082821015620016065762001605620016e7565b5b828203905092915050565b60006200161e8262001651565b9050919050565b60007fffffffff0000000000000000000000000000000000000000000000000000000082169050919050565b600073ffffffffffffffffffffffffffffffffffffffff82169050919050565b6000819050919050565b60005b838110156200169b5780820151818401526020810190506200167e565b83811115620016ab576000848401525b50505050565b60006002820490506001821680620016ca57607f821691505b60208210811415620016e157620016e062001716565b5b50919050565b7f4e487b7100000000000000000000000000000000000000000000000000000000600052601160045260246000fd5b7f4e487b7100000000000000000000000000000000000000000000000000000000600052602260045260246000fd5b7f4e487b7100000000000000000000000000000000000000000000000000000000600052604160045260246000fd5b6000601f19601f8301169050919050565b620017908162001625565b81146200179c57600080fd5b50565b61431580620017af6000396000f3fe6080604052600436106101cd5760003560e01c8063715018a6116100f7578063a22cb46511610095578063cdc19adf11610064578063cdc19adf14610677578063e8a3d48514610693578063e985e9c5146106be578063f2fde38b146106fb576101cd565b8063a22cb465146105bf578063b88d4fde146105e8578063c87b56dd14610611578063ca8001441461064e576101cd565b806391b7f5ed116100d157806391b7f5ed14610517578063938e3d7b1461054057806395d89b411461056957806398d5fdca14610594576101cd565b8063715018a6146104cb578063853828b6146104e25780638da5cb5b146104ec576101cd565b806323b872dd1161016f5780634f6ccce71161013e5780634f6ccce7146103eb57806355f804b3146104285780636352211e1461045157806370a082311461048e576101cd565b806323b872dd1461031f5780632f745c591461034857806342842e0e14610385578063438b6300146103ae576101cd565b8063081812fc116101ab578063081812fc14610263578063095ea7b3146102a057806316c61ccc146102c957806318160ddd146102f4576101cd565b806301ffc9a7146101d257806302329a291461020f57806306fdde0314610238575b600080fd5b3480156101de57600080fd5b506101f960048036038101906101f49190613042565b610724565b6040516102069190613afa565b60405180910390f35b34801561021b57600080fd5b5061023660048036038101906102319190613019565b61079e565b005b34801561024457600080fd5b5061024d610837565b60405161025a9190613b15565b60405180910390f35b34801561026f57600080fd5b5061028a600480360381019061028591906130d5565b6108c9565b6040516102979190613a71565b60405180910390f35b3480156102ac57600080fd5b506102c760048036038101906102c29190612fdd565b61094e565b005b3480156102d557600080fd5b506102de610a66565b6040516102eb9190613afa565b60405180910390f35b34801561030057600080fd5b50610309610a79565b6040516103169190613e17565b60405180910390f35b34801561032b57600080fd5b5061034660048036038101906103419190612ed7565b610a86565b005b34801561035457600080fd5b5061036f600480360381019061036a9190612fdd565b610ae6565b60405161037c9190613e17565b60405180910390f35b34801561039157600080fd5b506103ac60048036038101906103a79190612ed7565b610b8b565b005b3480156103ba57600080fd5b506103d560048036038101906103d09190612e72565b610bab565b6040516103e29190613ad8565b60405180910390f35b3480156103f757600080fd5b50610412600480360381019061040d91906130d5565b610ca5565b60405161041f9190613e17565b60405180910390f35b34801561043457600080fd5b5061044f600480360381019061044a9190613094565b610d3c565b005b34801561045d57600080fd5b50610478600480360381019061047391906130d5565b610dd2565b6040516104859190613a71565b60405180910390f35b34801561049a57600080fd5b506104b560048036038101906104b09190612e72565b610e84565b6040516104c29190613e17565b60405180910390f35b3480156104d757600080fd5b506104e0610f3c565b005b6104ea610fc4565b005b3480156104f857600080fd5b506105016111d4565b60405161050e9190613a71565b60405180910390f35b34801561052357600080fd5b5061053e600480360381019061053991906130d5565b6111fe565b005b34801561054c57600080fd5b5061056760048036038101906105629190613094565b611284565b005b34801561057557600080fd5b5061057e61131a565b60405161058b9190613b15565b60405180910390f35b3480156105a057600080fd5b506105a96113ac565b6040516105b69190613e17565b60405180910390f35b3480156105cb57600080fd5b506105e660048036038101906105e19190612fa1565b6113b6565b005b3480156105f457600080fd5b5061060f600480360381019061060a9190612f26565b611537565b005b34801561061d57600080fd5b50610638600480360381019061063391906130d5565b611599565b6040516106459190613b15565b60405180910390f35b34801561065a57600080fd5b5061067560048036038101906106709190612fdd565b611640565b005b610691600480360381019061068c91906130d5565b61175f565b005b34801561069f57600080fd5b506106a86118e2565b6040516106b59190613b15565b60405180910390f35b3480156106ca57600080fd5b506106e560048036038101906106e09190612e9b565b611974565b6040516106f29190613afa565b60405180910390f35b34801561070757600080fd5b50610722600480360381019061071d9190612e72565b611a08565b005b60007f780e9d63000000000000000000000000000000000000000000000000000000007bffffffffffffffffffffffffffffffffffffffffffffffffffffffff1916827bffffffffffffffffffffffffffffffffffffffffffffffffffffffff19161480610797575061079682611b18565b5b9050919050565b6107a6611bfa565b73ffffffffffffffffffffffffffffffffffffffff166107c46111d4565b73ffffffffffffffffffffffffffffffffffffffff161461081a576040517f08c379a000000000000000000000000000000000000000000000000000000000815260040161081190613d17565b60405180910390fd5b80600f60006101000a81548160ff02191690831515021790555050565b6060600080546108469061410a565b80601f01602080910402602001604051908101604052809291908181526020018280546108729061410a565b80156108bf5780601f10610894576101008083540402835291602001916108bf565b820191906000526020600020905b8154815290600101906020018083116108a257829003601f168201915b5050505050905090565b60006108d482611c02565b610913576040517f08c379a000000000000000000000000000000000000000000000000000000000815260040161090a90613cf7565b60405180910390fd5b6004600083815260200190815260200160002060009054906101000a900473ffffffffffffffffffffffffffffffffffffffff169050919050565b600061095982610dd2565b90508073ffffffffffffffffffffffffffffffffffffffff168373ffffffffffffffffffffffffffffffffffffffff1614156109ca576040517f08c379a00000000000000000000000000000000000000000000000000000000081526004016109c190613d77565b60405180910390fd5b8073ffffffffffffffffffffffffffffffffffffffff166109e9611bfa565b73ffffffffffffffffffffffffffffffffffffffff161480610a185750610a1781610a12611bfa565b611974565b5b610a57576040517f08c379a0000000000000000000000000000000000000000000000000000000008152600401610a4e90613c77565b60405180910390fd5b610a618383611c6e565b505050565b600f60009054906101000a900460ff1681565b6000600880549050905090565b610a97610a91611bfa565b82611d27565b610ad6576040517f08c379a0000000000000000000000000000000000000000000000000000000008152600401610acd90613db7565b60405180910390fd5b610ae1838383611e05565b505050565b6000610af183610e84565b8210610b32576040517f08c379a0000000000000000000000000000000000000000000000000000000008152600401610b2990613b57565b60405180910390fd5b600660008473ffffffffffffffffffffffffffffffffffffffff1673ffffffffffffffffffffffffffffffffffffffff168152602001908152602001600020600083815260200190815260200160002054905092915050565b610ba683838360405180602001604052806000815250611537565b505050565b60606000610bb883610e84565b905060008167ffffffffffffffff811115610bfc577f4e487b7100000000000000000000000000000000000000000000000000000000600052604160045260246000fd5b604051908082528060200260200182016040528015610c2a5781602001602082028036833780820191505090505b50905060005b82811015610c9a57610c428582610ae6565b828281518110610c7b577f4e487b7100000000000000000000000000000000000000000000000000000000600052603260045260246000fd5b6020026020010181815250508080610c929061413c565b915050610c30565b508092505050919050565b6000610caf610a79565b8210610cf0576040517f08c379a0000000000000000000000000000000000000000000000000000000008152600401610ce790613dd7565b60405180910390fd5b60088281548110610d2a577f4e487b7100000000000000000000000000000000000000000000000000000000600052603260045260246000fd5b90600052602060002001549050919050565b610d44611bfa565b73ffffffffffffffffffffffffffffffffffffffff16610d626111d4565b73ffffffffffffffffffffffffffffffffffffffff1614610db8576040517f08c379a0000000000000000000000000000000000000000000000000000000008152600401610daf90613d17565b60405180910390fd5b80600b9080519060200190610dce929190612c96565b5050565b6000806002600084815260200190815260200160002060009054906101000a900473ffffffffffffffffffffffffffffffffffffffff169050600073ffffffffffffffffffffffffffffffffffffffff168173ffffffffffffffffffffffffffffffffffffffff161415610e7b576040517f08c379a0000000000000000000000000000000000000000000000000000000008152600401610e7290613cb7565b60405180910390fd5b80915050919050565b60008073ffffffffffffffffffffffffffffffffffffffff168273ffffffffffffffffffffffffffffffffffffffff161415610ef5576040517f08c379a0000000000000000000000000000000000000000000000000000000008152600401610eec90613c97565b60405180910390fd5b600360008373ffffffffffffffffffffffffffffffffffffffff1673ffffffffffffffffffffffffffffffffffffffff168152602001908152602001600020549050919050565b610f44611bfa565b73ffffffffffffffffffffffffffffffffffffffff16610f626111d4565b73ffffffffffffffffffffffffffffffffffffffff1614610fb8576040517f08c379a0000000000000000000000000000000000000000000000000000000008152600401610faf90613d17565b60405180910390fd5b610fc26000612061565b565b610fcc611bfa565b73ffffffffffffffffffffffffffffffffffffffff16610fea6111d4565b73ffffffffffffffffffffffffffffffffffffffff1614611040576040517f08c379a000000000000000000000000000000000000000000000000000000000815260040161103790613d17565b60405180910390fd5b600060044761104f9190613f95565b9050600f60019054906101000a900473ffffffffffffffffffffffffffffffffffffffff1673ffffffffffffffffffffffffffffffffffffffff166108fc829081150290604051600060405180830381858888f193505050506110b157600080fd5b601060009054906101000a900473ffffffffffffffffffffffffffffffffffffffff1673ffffffffffffffffffffffffffffffffffffffff166108fc829081150290604051600060405180830381858888f1935050505061111157600080fd5b601160009054906101000a900473ffffffffffffffffffffffffffffffffffffffff1673ffffffffffffffffffffffffffffffffffffffff166108fc829081150290604051600060405180830381858888f1935050505061117157600080fd5b601260009054906101000a900473ffffffffffffffffffffffffffffffffffffffff1673ffffffffffffffffffffffffffffffffffffffff166108fc829081150290604051600060405180830381858888f193505050506111d157600080fd5b50565b6000600a60009054906101000a900473ffffffffffffffffffffffffffffffffffffffff16905090565b611206611bfa565b73ffffffffffffffffffffffffffffffffffffffff166112246111d4565b73ffffffffffffffffffffffffffffffffffffffff161461127a576040517f08c379a000000000000000000000000000000000000000000000000000000000815260040161127190613d17565b60405180910390fd5b80600e8190555050565b61128c611bfa565b73ffffffffffffffffffffffffffffffffffffffff166112aa6111d4565b73ffffffffffffffffffffffffffffffffffffffff1614611300576040517f08c379a00000000000000000000000000000000000000000000000000000000081526004016112f790613d17565b60405180910390fd5b80600c9080519060200190611316929190612c96565b5050565b6060600180546113299061410a565b80601f01602080910402602001604051908101604052809291908181526020018280546113559061410a565b80156113a25780601f10611377576101008083540402835291602001916113a2565b820191906000526020600020905b81548152906001019060200180831161138557829003601f168201915b5050505050905090565b6000600e54905090565b6113be611bfa565b73ffffffffffffffffffffffffffffffffffffffff168273ffffffffffffffffffffffffffffffffffffffff16141561142c576040517f08c379a000000000000000000000000000000000000000000000000000000000815260040161142390613c17565b60405180910390fd5b8060056000611439611bfa565b73ffffffffffffffffffffffffffffffffffffffff1673ffffffffffffffffffffffffffffffffffffffff16815260200190815260200160002060008473ffffffffffffffffffffffffffffffffffffffff1673ffffffffffffffffffffffffffffffffffffffff16815260200190815260200160002060006101000a81548160ff0219169083151502179055508173ffffffffffffffffffffffffffffffffffffffff166114e6611bfa565b73ffffffffffffffffffffffffffffffffffffffff167f17307eab39ab6107e8899845ad3d59bd9653f200f220920489ca2b5937696c318360405161152b9190613afa565b60405180910390a35050565b611548611542611bfa565b83611d27565b611587576040517f08c379a000000000000000000000000000000000000000000000000000000000815260040161157e90613db7565b60405180910390fd5b61159384848484612127565b50505050565b60606115a482611c02565b6115e3576040517f08c379a00000000000000000000000000000000000000000000000000000000081526004016115da90613d57565b60405180910390fd5b60006115ed612183565b9050600081511161160d5760405180602001604052806000815250611638565b8061161784612215565b604051602001611628929190613a4d565b6040516020818303038152906040525b915050919050565b611648611bfa565b73ffffffffffffffffffffffffffffffffffffffff166116666111d4565b73ffffffffffffffffffffffffffffffffffffffff16146116bc576040517f08c379a00000000000000000000000000000000000000000000000000000000081526004016116b390613d17565b60405180910390fd5b600d54811115611701576040517f08c379a00000000000000000000000000000000000000000000000000000000081526004016116f890613bb7565b60405180910390fd5b600061170b610a79565b905060005b828110156117405761172d8482846117289190613f3f565b6123c2565b80806117389061413c565b915050611710565b5081600d60008282546117539190614020565b92505081905550505050565b6000611769610a79565b9050600f60009054906101000a900460ff16156117bb576040517f08c379a00000000000000000000000000000000000000000000000000000000081526004016117b290613b37565b60405180910390fd5b600482106117fe576040517f08c379a00000000000000000000000000000000000000000000000000000000081526004016117f590613c37565b60405180910390fd5b612711600d5483836118109190613f3f565b61181a9190613f3f565b1061185a576040517f08c379a000000000000000000000000000000000000000000000000000000000815260040161185190613df7565b60405180910390fd5b81600e546118689190613fc6565b3410156118aa576040517f08c379a00000000000000000000000000000000000000000000000000000000081526004016118a190613d97565b60405180910390fd5b60005b828110156118dd576118ca3382846118c59190613f3f565b6123c2565b80806118d59061413c565b9150506118ad565b505050565b6060600c80546118f19061410a565b80601f016020809104026020016040519081016040528092919081815260200182805461191d9061410a565b801561196a5780601f1061193f5761010080835404028352916020019161196a565b820191906000526020600020905b81548152906001019060200180831161194d57829003601f168201915b5050505050905090565b6000600560008473ffffffffffffffffffffffffffffffffffffffff1673ffffffffffffffffffffffffffffffffffffffff16815260200190815260200160002060008373ffffffffffffffffffffffffffffffffffffffff1673ffffffffffffffffffffffffffffffffffffffff16815260200190815260200160002060009054906101000a900460ff16905092915050565b611a10611bfa565b73ffffffffffffffffffffffffffffffffffffffff16611a2e6111d4565b73ffffffffffffffffffffffffffffffffffffffff1614611a84576040517f08c379a0000000000000000000000000000000000000000000000000000000008152600401611a7b90613d17565b60405180910390fd5b600073ffffffffffffffffffffffffffffffffffffffff168173ffffffffffffffffffffffffffffffffffffffff161415611af4576040517f08c379a0000000000000000000000000000000000000000000000000000000008152600401611aeb90613b97565b60405180910390fd5b611afd81612061565b50565b600080823b905060008111915050919050565b505050565b60007f80ac58cd000000000000000000000000000000000000000000000000000000007bffffffffffffffffffffffffffffffffffffffffffffffffffffffff1916827bffffffffffffffffffffffffffffffffffffffffffffffffffffffff19161480611be357507f5b5e139f000000000000000000000000000000000000000000000000000000007bffffffffffffffffffffffffffffffffffffffffffffffffffffffff1916827bffffffffffffffffffffffffffffffffffffffffffffffffffffffff1916145b80611bf35750611bf2826123e0565b5b9050919050565b600033905090565b60008073ffffffffffffffffffffffffffffffffffffffff166002600084815260200190815260200160002060009054906101000a900473ffffffffffffffffffffffffffffffffffffffff1673ffffffffffffffffffffffffffffffffffffffff1614159050919050565b816004600083815260200190815260200160002060006101000a81548173ffffffffffffffffffffffffffffffffffffffff021916908373ffffffffffffffffffffffffffffffffffffffff160217905550808273ffffffffffffffffffffffffffffffffffffffff16611ce183610dd2565b73ffffffffffffffffffffffffffffffffffffffff167f8c5be1e5ebec7d5bd14f71427d1e84f3dd0314c0f7b2291e5b200ac8c7c3b92560405160405180910390a45050565b6000611d3282611c02565b611d71576040517f08c379a0000000000000000000000000000000000000000000000000000000008152600401611d6890613c57565b60405180910390fd5b6000611d7c83610dd2565b90508073ffffffffffffffffffffffffffffffffffffffff168473ffffffffffffffffffffffffffffffffffffffff161480611deb57508373ffffffffffffffffffffffffffffffffffffffff16611dd3846108c9565b73ffffffffffffffffffffffffffffffffffffffff16145b80611dfc5750611dfb8185611974565b5b91505092915050565b8273ffffffffffffffffffffffffffffffffffffffff16611e2582610dd2565b73ffffffffffffffffffffffffffffffffffffffff1614611e7b576040517f08c379a0000000000000000000000000000000000000000000000000000000008152600401611e7290613d37565b60405180910390fd5b600073ffffffffffffffffffffffffffffffffffffffff168273ffffffffffffffffffffffffffffffffffffffff161415611eeb576040517f08c379a0000000000000000000000000000000000000000000000000000000008152600401611ee290613bf7565b60405180910390fd5b611ef683838361244a565b611f01600082611c6e565b6001600360008573ffffffffffffffffffffffffffffffffffffffff1673ffffffffffffffffffffffffffffffffffffffff1681526020019081526020016000206000828254611f519190614020565b925050819055506001600360008473ffffffffffffffffffffffffffffffffffffffff1673ffffffffffffffffffffffffffffffffffffffff1681526020019081526020016000206000828254611fa89190613f3f565b92505081905550816002600083815260200190815260200160002060006101000a81548173ffffffffffffffffffffffffffffffffffffffff021916908373ffffffffffffffffffffffffffffffffffffffff160217905550808273ffffffffffffffffffffffffffffffffffffffff168473ffffffffffffffffffffffffffffffffffffffff167fddf252ad1be2c89b69c2b068fc378daa952ba7f163c4a11628f55a4df523b3ef60405160405180910390a4505050565b6000600a60009054906101000a900473ffffffffffffffffffffffffffffffffffffffff16905081600a60006101000a81548173ffffffffffffffffffffffffffffffffffffffff021916908373ffffffffffffffffffffffffffffffffffffffff1602179055508173ffffffffffffffffffffffffffffffffffffffff168173ffffffffffffffffffffffffffffffffffffffff167f8be0079c531659141344cd1fd0a4f28419497f9722a3daafe3b4186f6b6457e060405160405180910390a35050565b612132848484611e05565b61213e8484848461255e565b61217d576040517f08c379a000000000000000000000000000000000000000000000000000000000815260040161217490613b77565b60405180910390fd5b50505050565b6060600b80546121929061410a565b80601f01602080910402602001604051908101604052809291908181526020018280546121be9061410a565b801561220b5780601f106121e05761010080835404028352916020019161220b565b820191906000526020600020905b8154815290600101906020018083116121ee57829003601f168201915b5050505050905090565b6060600082141561225d576040518060400160405280600181526020017f300000000000000000000000000000000000000000000000000000000000000081525090506123bd565b600082905060005b6000821461228f5780806122789061413c565b915050600a826122889190613f95565b9150612265565b60008167ffffffffffffffff8111156122d1577f4e487b7100000000000000000000000000000000000000000000000000000000600052604160045260246000fd5b6040519080825280601f01601f1916602001820160405280156123035781602001600182028036833780820191505090505b5090505b600085146123b65760018261231c9190614020565b9150600a8561232b9190614185565b60306123379190613f3f565b60f81b818381518110612373577f4e487b7100000000000000000000000000000000000000000000000000000000600052603260045260246000fd5b60200101907effffffffffffffffffffffffffffffffffffffffffffffffffffffffffffff1916908160001a905350600a856123af9190613f95565b9450612307565b8093505050505b919050565b6123dc8282604051806020016040528060008152506126f5565b5050565b60007f01ffc9a7000000000000000000000000000000000000000000000000000000007bffffffffffffffffffffffffffffffffffffffffffffffffffffffff1916827bffffffffffffffffffffffffffffffffffffffffffffffffffffffff1916149050919050565b612455838383611b13565b600073ffffffffffffffffffffffffffffffffffffffff168373ffffffffffffffffffffffffffffffffffffffff1614156124985761249381612750565b6124d7565b8173ffffffffffffffffffffffffffffffffffffffff168373ffffffffffffffffffffffffffffffffffffffff16146124d6576124d58382612799565b5b5b600073ffffffffffffffffffffffffffffffffffffffff168273ffffffffffffffffffffffffffffffffffffffff16141561251a5761251581612906565b612559565b8273ffffffffffffffffffffffffffffffffffffffff168273ffffffffffffffffffffffffffffffffffffffff1614612558576125578282612a49565b5b5b505050565b600061257f8473ffffffffffffffffffffffffffffffffffffffff16611b00565b156126e8578373ffffffffffffffffffffffffffffffffffffffff1663150b7a026125a8611bfa565b8786866040518563ffffffff1660e01b81526004016125ca9493929190613a8c565b602060405180830381600087803b1580156125e457600080fd5b505af192505050801561261557506040513d601f19601f82011682018060405250810190612612919061306b565b60015b612698573d8060008114612645576040519150601f19603f3d011682016040523d82523d6000602084013e61264a565b606091505b50600081511415612690576040517f08c379a000000000000000000000000000000000000000000000000000000000815260040161268790613b77565b60405180910390fd5b805181602001fd5b63150b7a0260e01b7bffffffffffffffffffffffffffffffffffffffffffffffffffffffff1916817bffffffffffffffffffffffffffffffffffffffffffffffffffffffff1916149150506126ed565b600190505b949350505050565b6126ff8383612ac8565b61270c600084848461255e565b61274b576040517f08c379a000000000000000000000000000000000000000000000000000000000815260040161274290613b77565b60405180910390fd5b505050565b6008805490506009600083815260200190815260200160002081905550600881908060018154018082558091505060019003906000526020600020016000909190919091505550565b600060016127a684610e84565b6127b09190614020565b9050600060076000848152602001908152602001600020549050818114612895576000600660008673ffffffffffffffffffffffffffffffffffffffff1673ffffffffffffffffffffffffffffffffffffffff168152602001908152602001600020600084815260200190815260200160002054905080600660008773ffffffffffffffffffffffffffffffffffffffff1673ffffffffffffffffffffffffffffffffffffffff168152602001908152602001600020600084815260200190815260200160002081905550816007600083815260200190815260200160002081905550505b6007600084815260200190815260200160002060009055600660008573ffffffffffffffffffffffffffffffffffffffff1673ffffffffffffffffffffffffffffffffffffffff16815260200190815260200160002060008381526020019081526020016000206000905550505050565b6000600160088054905061291a9190614020565b9050600060096000848152602001908152602001600020549050600060088381548110612970577f4e487b7100000000000000000000000000000000000000000000000000000000600052603260045260246000fd5b9060005260206000200154905080600883815481106129b8577f4e487b7100000000000000000000000000000000000000000000000000000000600052603260045260246000fd5b906000526020600020018190555081600960008381526020019081526020016000208190555060096000858152602001908152602001600020600090556008805480612a2d577f4e487b7100000000000000000000000000000000000000000000000000000000600052603160045260246000fd5b6001900381819060005260206000200160009055905550505050565b6000612a5483610e84565b905081600660008573ffffffffffffffffffffffffffffffffffffffff1673ffffffffffffffffffffffffffffffffffffffff168152602001908152602001600020600083815260200190815260200160002081905550806007600084815260200190815260200160002081905550505050565b600073ffffffffffffffffffffffffffffffffffffffff168273ffffffffffffffffffffffffffffffffffffffff161415612b38576040517f08c379a0000000000000000000000000000000000000000000000000000000008152600401612b2f90613cd7565b60405180910390fd5b612b4181611c02565b15612b81576040517f08c379a0000000000000000000000000000000000000000000000000000000008152600401612b7890613bd7565b60405180910390fd5b612b8d6000838361244a565b6001600360008473ffffffffffffffffffffffffffffffffffffffff1673ffffffffffffffffffffffffffffffffffffffff1681526020019081526020016000206000828254612bdd9190613f3f565b92505081905550816002600083815260200190815260200160002060006101000a81548173ffffffffffffffffffffffffffffffffffffffff021916908373ffffffffffffffffffffffffffffffffffffffff160217905550808273ffffffffffffffffffffffffffffffffffffffff16600073ffffffffffffffffffffffffffffffffffffffff167fddf252ad1be2c89b69c2b068fc378daa952ba7f163c4a11628f55a4df523b3ef60405160405180910390a45050565b828054612ca29061410a565b90600052602060002090601f016020900481019282612cc45760008555612d0b565b82601f10612cdd57805160ff1916838001178555612d0b565b82800160010185558215612d0b579182015b82811115612d0a578251825591602001919060010190612cef565b5b509050612d189190612d1c565b5090565b5b80821115612d35576000816000905550600101612d1d565b5090565b6000612d4c612d4784613e63565b613e32565b905082815260208101848484011115612d6457600080fd5b612d6f8482856140c8565b509392505050565b6000612d8a612d8584613e93565b613e32565b905082815260208101848484011115612da257600080fd5b612dad8482856140c8565b509392505050565b600081359050612dc481614283565b92915050565b600081359050612dd98161429a565b92915050565b600081359050612dee816142b1565b92915050565b600081519050612e03816142b1565b92915050565b600082601f830112612e1a57600080fd5b8135612e2a848260208601612d39565b91505092915050565b600082601f830112612e4457600080fd5b8135612e54848260208601612d77565b91505092915050565b600081359050612e6c816142c8565b92915050565b600060208284031215612e8457600080fd5b6000612e9284828501612db5565b91505092915050565b60008060408385031215612eae57600080fd5b6000612ebc85828601612db5565b9250506020612ecd85828601612db5565b9150509250929050565b600080600060608486031215612eec57600080fd5b6000612efa86828701612db5565b9350506020612f0b86828701612db5565b9250506040612f1c86828701612e5d565b9150509250925092565b60008060008060808587031215612f3c57600080fd5b6000612f4a87828801612db5565b9450506020612f5b87828801612db5565b9350506040612f6c87828801612e5d565b925050606085013567ffffffffffffffff811115612f8957600080fd5b612f9587828801612e09565b91505092959194509250565b60008060408385031215612fb457600080fd5b6000612fc285828601612db5565b9250506020612fd385828601612dca565b9150509250929050565b60008060408385031215612ff057600080fd5b6000612ffe85828601612db5565b925050602061300f85828601612e5d565b9150509250929050565b60006020828403121561302b57600080fd5b600061303984828501612dca565b91505092915050565b60006020828403121561305457600080fd5b600061306284828501612ddf565b91505092915050565b60006020828403121561307d57600080fd5b600061308b84828501612df4565b91505092915050565b6000602082840312156130a657600080fd5b600082013567ffffffffffffffff8111156130c057600080fd5b6130cc84828501612e33565b91505092915050565b6000602082840312156130e757600080fd5b60006130f584828501612e5d565b91505092915050565b600061310a8383613a2f565b60208301905092915050565b61311f81614054565b82525050565b600061313082613ed3565b61313a8185613f01565b935061314583613ec3565b8060005b8381101561317657815161315d88826130fe565b975061316883613ef4565b925050600181019050613149565b5085935050505092915050565b61318c81614066565b82525050565b600061319d82613ede565b6131a78185613f12565b93506131b78185602086016140d7565b6131c081614272565b840191505092915050565b60006131d682613ee9565b6131e08185613f23565b93506131f08185602086016140d7565b6131f981614272565b840191505092915050565b600061320f82613ee9565b6132198185613f34565b93506132298185602086016140d7565b80840191505092915050565b6000613242600b83613f23565b91507f53616c65207061757365640000000000000000000000000000000000000000006000830152602082019050919050565b6000613282602b83613f23565b91507f455243373231456e756d657261626c653a206f776e657220696e646578206f7560008301527f74206f6620626f756e64730000000000000000000000000000000000000000006020830152604082019050919050565b60006132e8603283613f23565b91507f4552433732313a207472616e7366657220746f206e6f6e20455243373231526560008301527f63656976657220696d706c656d656e74657200000000000000000000000000006020830152604082019050919050565b600061334e602683613f23565b91507f4f776e61626c653a206e6577206f776e657220697320746865207a65726f206160008301527f64647265737300000000000000000000000000000000000000000000000000006020830152604082019050919050565b60006133b4601b83613f23565b91507f457863656564732072657365727665642043617420737570706c7900000000006000830152602082019050919050565b60006133f4601c83613f23565b91507f4552433732313a20746f6b656e20616c7265616479206d696e746564000000006000830152602082019050919050565b6000613434602483613f23565b91507f4552433732313a207472616e7366657220746f20746865207a65726f2061646460008301527f72657373000000000000000000000000000000000000000000000000000000006020830152604082019050919050565b600061349a601983613f23565b91507f4552433732313a20617070726f766520746f2063616c6c6572000000000000006000830152602082019050919050565b60006134da602583613f23565b91507f596f752063616e20636c6f6e652061206d6178696d756d206f6620332053686960008301527f6e6f6269730000000000000000000000000000000000000000000000000000006020830152604082019050919050565b6000613540602c83613f23565b91507f4552433732313a206f70657261746f7220717565727920666f72206e6f6e657860008301527f697374656e7420746f6b656e00000000000000000000000000000000000000006020830152604082019050919050565b60006135a6603883613f23565b91507f4552433732313a20617070726f76652063616c6c6572206973206e6f74206f7760008301527f6e6572206e6f7220617070726f76656420666f7220616c6c00000000000000006020830152604082019050919050565b600061360c602a83613f23565b91507f4552433732313a2062616c616e636520717565727920666f7220746865207a6560008301527f726f2061646472657373000000000000000000000000000000000000000000006020830152604082019050919050565b6000613672602983613f23565b91507f4552433732313a206f776e657220717565727920666f72206e6f6e657869737460008301527f656e7420746f6b656e00000000000000000000000000000000000000000000006020830152604082019050919050565b60006136d8602083613f23565b91507f4552433732313a206d696e7420746f20746865207a65726f20616464726573736000830152602082019050919050565b6000613718602c83613f23565b91507f4552433732313a20617070726f76656420717565727920666f72206e6f6e657860008301527f697374656e7420746f6b656e00000000000000000000000000000000000000006020830152604082019050919050565b600061377e602083613f23565b91507f4f776e61626c653a2063616c6c6572206973206e6f7420746865206f776e65726000830152602082019050919050565b60006137be602983613f23565b91507f4552433732313a207472616e73666572206f6620746f6b656e2074686174206960008301527f73206e6f74206f776e00000000000000000000000000000000000000000000006020830152604082019050919050565b6000613824602f83613f23565b91507f4552433732314d657461646174613a2055524920717565727920666f72206e6f60008301527f6e6578697374656e7420746f6b656e00000000000000000000000000000000006020830152604082019050919050565b600061388a602183613f23565b91507f4552433732313a20617070726f76616c20746f2063757272656e74206f776e6560008301527f72000000000000000000000000000000000000000000000000000000000000006020830152604082019050919050565b60006138f0601983613f23565b91507f45746865722073656e74206973206e6f7420636f7272656374000000000000006000830152602082019050919050565b6000613930603183613f23565b91507f4552433732313a207472616e736665722063616c6c6572206973206e6f74206f60008301527f776e6572206e6f7220617070726f7665640000000000000000000000000000006020830152604082019050919050565b6000613996602c83613f23565b91507f455243373231456e756d657261626c653a20676c6f62616c20696e646578206f60008301527f7574206f6620626f756e647300000000000000000000000000000000000000006020830152604082019050919050565b60006139fc601f83613f23565b91507f45786365656473206d6178696d756d205368696e6f62697320737570706c79006000830152602082019050919050565b613a38816140be565b82525050565b613a47816140be565b82525050565b6000613a598285613204565b9150613a658284613204565b91508190509392505050565b6000602082019050613a866000830184613116565b92915050565b6000608082019050613aa16000830187613116565b613aae6020830186613116565b613abb6040830185613a3e565b8181036060830152613acd8184613192565b905095945050505050565b60006020820190508181036000830152613af28184613125565b905092915050565b6000602082019050613b0f6000830184613183565b92915050565b60006020820190508181036000830152613b2f81846131cb565b905092915050565b60006020820190508181036000830152613b5081613235565b9050919050565b60006020820190508181036000830152613b7081613275565b9050919050565b60006020820190508181036000830152613b90816132db565b9050919050565b60006020820190508181036000830152613bb081613341565b9050919050565b60006020820190508181036000830152613bd0816133a7565b9050919050565b60006020820190508181036000830152613bf0816133e7565b9050919050565b60006020820190508181036000830152613c1081613427565b9050919050565b60006020820190508181036000830152613c308161348d565b9050919050565b60006020820190508181036000830152613c50816134cd565b9050919050565b60006020820190508181036000830152613c7081613533565b9050919050565b60006020820190508181036000830152613c9081613599565b9050919050565b60006020820190508181036000830152613cb0816135ff565b9050919050565b60006020820190508181036000830152613cd081613665565b9050919050565b60006020820190508181036000830152613cf0816136cb565b9050919050565b60006020820190508181036000830152613d108161370b565b9050919050565b60006020820190508181036000830152613d3081613771565b9050919050565b60006020820190508181036000830152613d50816137b1565b9050919050565b60006020820190508181036000830152613d7081613817565b9050919050565b60006020820190508181036000830152613d908161387d565b9050919050565b60006020820190508181036000830152613db0816138e3565b9050919050565b60006020820190508181036000830152613dd081613923565b9050919050565b60006020820190508181036000830152613df081613989565b9050919050565b60006020820190508181036000830152613e10816139ef565b9050919050565b6000602082019050613e2c6000830184613a3e565b92915050565b6000604051905081810181811067ffffffffffffffff82111715613e5957613e58614243565b5b8060405250919050565b600067ffffffffffffffff821115613e7e57613e7d614243565b5b601f19601f8301169050602081019050919050565b600067ffffffffffffffff821115613eae57613ead614243565b5b601f19601f8301169050602081019050919050565b6000819050602082019050919050565b600081519050919050565b600081519050919050565b600081519050919050565b6000602082019050919050565b600082825260208201905092915050565b600082825260208201905092915050565b600082825260208201905092915050565b600081905092915050565b6000613f4a826140be565b9150613f55836140be565b9250827fffffffffffffffffffffffffffffffffffffffffffffffffffffffffffffffff03821115613f8a57613f896141b6565b5b828201905092915050565b6000613fa0826140be565b9150613fab836140be565b925082613fbb57613fba6141e5565b5b828204905092915050565b6000613fd1826140be565b9150613fdc836140be565b9250817fffffffffffffffffffffffffffffffffffffffffffffffffffffffffffffffff0483118215151615614015576140146141b6565b5b828202905092915050565b600061402b826140be565b9150614036836140be565b925082821015614049576140486141b6565b5b828203905092915050565b600061405f8261409e565b9050919050565b60008115159050919050565b60007fffffffff0000000000000000000000000000000000000000000000000000000082169050919050565b600073ffffffffffffffffffffffffffffffffffffffff82169050919050565b6000819050919050565b82818337600083830152505050565b60005b838110156140f55780820151818401526020810190506140da565b83811115614104576000848401525b50505050565b6000600282049050600182168061412257607f821691505b6020821081141561413657614135614214565b5b50919050565b6000614147826140be565b91507fffffffffffffffffffffffffffffffffffffffffffffffffffffffffffffffff82141561417a576141796141b6565b5b600182019050919050565b6000614190826140be565b915061419b836140be565b9250826141ab576141aa6141e5565b5b828206905092915050565b7f4e487b7100000000000000000000000000000000000000000000000000000000600052601160045260246000fd5b7f4e487b7100000000000000000000000000000000000000000000000000000000600052601260045260246000fd5b7f4e487b7100000000000000000000000000000000000000000000000000000000600052602260045260246000fd5b7f4e487b7100000000000000000000000000000000000000000000000000000000600052604160045260246000fd5b6000601f19601f8301169050919050565b61428c81614054565b811461429757600080fd5b50565b6142a381614066565b81146142ae57600080fd5b50565b6142ba81614072565b81146142c557600080fd5b50565b6142d1816140be565b81146142dc57600080fd5b5056fea2646970667358221220d1479067c72eba6742d4b7d3358f274fb718fdecbba5e97bef347f4abd0aa10764736f6c63430008000033",
  "linkReferences": {},
  "deployedLinkReferences": {}
}